{
  "abi": [
    {
      "inputs": [
        {
          "internalType": "uint256",
          "name": "minimum",
          "type": "uint256"
        },
        {
          "internalType": "address",
          "name": "creator",
          "type": "address"
        }
      ],
      "stateMutability": "nonpayable",
      "type": "constructor"
    },
    {
      "inputs": [
        {
          "internalType": "uint256",
          "name": "index",
          "type": "uint256"
        }
      ],
      "name": "approveRequest",
      "outputs": [],
      "stateMutability": "nonpayable",
      "type": "function"
    },
    {
      "inputs": [
        {
          "internalType": "address",
          "name": "",
          "type": "address"
        }
      ],
      "name": "approvers",
      "outputs": [
        {
          "internalType": "bool",
          "name": "",
          "type": "bool"
        }
      ],
      "stateMutability": "view",
      "type": "function"
    },
    {
      "inputs": [],
      "name": "contribute",
      "outputs": [],
      "stateMutability": "payable",
      "type": "function"
    },
    {
      "inputs": [
        {
          "internalType": "string",
          "name": "description",
          "type": "string"
        },
        {
          "internalType": "uint256",
          "name": "value",
          "type": "uint256"
        },
        {
          "internalType": "address payable",
          "name": "recipient",
          "type": "address"
        }
      ],
      "name": "createRequest",
      "outputs": [],
      "stateMutability": "nonpayable",
      "type": "function"
    },
    {
      "inputs": [
        {
          "internalType": "uint256",
          "name": "index",
          "type": "uint256"
        }
      ],
      "name": "finalizeRequest",
      "outputs": [],
      "stateMutability": "nonpayable",
      "type": "function"
    },
    {
      "inputs": [],
      "name": "manager",
      "outputs": [
        {
          "internalType": "address",
          "name": "",
          "type": "address"
        }
      ],
      "stateMutability": "view",
      "type": "function"
    },
    {
      "inputs": [],
      "name": "minimumContribution",
      "outputs": [
        {
          "internalType": "uint256",
          "name": "",
          "type": "uint256"
        }
      ],
      "stateMutability": "view",
      "type": "function"
    },
    {
      "inputs": [
        {
          "internalType": "uint256",
          "name": "",
          "type": "uint256"
        }
      ],
      "name": "requests",
      "outputs": [
        {
          "internalType": "string",
          "name": "description",
          "type": "string"
        },
        {
          "internalType": "uint256",
          "name": "value",
          "type": "uint256"
        },
        {
          "internalType": "address payable",
          "name": "recipient",
          "type": "address"
        },
        {
          "internalType": "bool",
          "name": "complete",
          "type": "bool"
        },
        {
          "internalType": "uint256",
          "name": "approvalCount",
          "type": "uint256"
        }
      ],
      "stateMutability": "view",
      "type": "function"
    },
    {
      "inputs": [],
      "name": "requestsLength",
      "outputs": [
        {
          "internalType": "uint256",
          "name": "",
          "type": "uint256"
        }
      ],
      "stateMutability": "view",
      "type": "function"
    },
    {
      "inputs": [
        {
          "internalType": "uint256",
          "name": "minimum",
          "type": "uint256"
        }
      ],
      "name": "setMinimum",
      "outputs": [],
      "stateMutability": "nonpayable",
      "type": "function"
    },
    {
      "inputs": [],
      "name": "summary",
      "outputs": [
        {
          "internalType": "uint256",
          "name": "",
          "type": "uint256"
        },
        {
          "internalType": "uint256",
          "name": "",
          "type": "uint256"
        },
        {
          "internalType": "uint256",
          "name": "",
          "type": "uint256"
        },
        {
          "internalType": "uint256",
          "name": "",
          "type": "uint256"
        },
        {
          "internalType": "address",
          "name": "",
          "type": "address"
        }
      ],
      "stateMutability": "view",
      "type": "function"
    }
  ],
  "devdoc": {
    "kind": "dev",
    "methods": {},
    "version": 1
  },
  "evm": {
    "assembly": "    /* \"Kickstarter.sol\":427:2464  contract Campaigns {\r... */\n  mstore(0x40, 0x80)\n    /* \"Kickstarter.sol\":877:987  constructor(uint256 minimum, address creator) {\r... */\n  callvalue\n  dup1\n  iszero\n  tag_1\n  jumpi\n  0x00\n  dup1\n  revert\ntag_1:\n  pop\n  mload(0x40)\n  sub(codesize, bytecodeSize)\n  dup1\n  bytecodeSize\n  dup4\n  codecopy\n  dup2\n  dup2\n  add\n  0x40\n  mstore\n  dup2\n  add\n  swap1\n  tag_2\n  swap2\n  swap1\n  tag_3\n  jump\t// in\ntag_2:\n    /* \"Kickstarter.sol\":940:947  creator */\n  dup1\n    /* \"Kickstarter.sol\":930:937  manager */\n  0x00\n  dup1\n    /* \"Kickstarter.sol\":930:947  manager = creator */\n  0x0100\n  exp\n  dup2\n  sload\n  dup2\n  0xffffffffffffffffffffffffffffffffffffffff\n  mul\n  not\n  and\n  swap1\n  dup4\n  0xffffffffffffffffffffffffffffffffffffffff\n  and\n  mul\n  or\n  swap1\n  sstore\n  pop\n    /* \"Kickstarter.sol\":976:983  minimum */\n  dup2\n    /* \"Kickstarter.sol\":954:973  minimumContribution */\n  0x01\n    /* \"Kickstarter.sol\":954:983  minimumContribution = minimum */\n  dup2\n  swap1\n  sstore\n  pop\n    /* \"Kickstarter.sol\":877:987  constructor(uint256 minimum, address creator) {\r... */\n  pop\n  pop\n    /* \"Kickstarter.sol\":427:2464  contract Campaigns {\r... */\n  jump(tag_6)\n    /* \"#utility.yul\":7:150   */\ntag_8:\n    /* \"#utility.yul\":64:69   */\n  0x00\n    /* \"#utility.yul\":95:101   */\n  dup2\n    /* \"#utility.yul\":89:102   */\n  mload\n    /* \"#utility.yul\":80:102   */\n  swap1\n  pop\n    /* \"#utility.yul\":111:144   */\n  tag_10\n    /* \"#utility.yul\":138:143   */\n  dup2\n    /* \"#utility.yul\":111:144   */\n  tag_11\n  jump\t// in\ntag_10:\n    /* \"#utility.yul\":7:150   */\n  swap3\n  swap2\n  pop\n  pop\n  jump\t// out\n    /* \"#utility.yul\":156:299   */\ntag_12:\n    /* \"#utility.yul\":213:218   */\n  0x00\n    /* \"#utility.yul\":244:250   */\n  dup2\n    /* \"#utility.yul\":238:251   */\n  mload\n    /* \"#utility.yul\":229:251   */\n  swap1\n  pop\n    /* \"#utility.yul\":260:293   */\n  tag_14\n    /* \"#utility.yul\":287:292   */\n  dup2\n    /* \"#utility.yul\":260:293   */\n  tag_15\n  jump\t// in\ntag_14:\n    /* \"#utility.yul\":156:299   */\n  swap3\n  swap2\n  pop\n  pop\n  jump\t// out\n    /* \"#utility.yul\":305:812   */\ntag_3:\n    /* \"#utility.yul\":384:390   */\n  0x00\n    /* \"#utility.yul\":392:398   */\n  dup1\n    /* \"#utility.yul\":441:443   */\n  0x40\n    /* \"#utility.yul\":429:438   */\n  dup4\n    /* \"#utility.yul\":420:427   */\n  dup6\n    /* \"#utility.yul\":416:439   */\n  sub\n    /* \"#utility.yul\":412:444   */\n  slt\n    /* \"#utility.yul\":409:528   */\n  iszero\n  tag_17\n  jumpi\n    /* \"#utility.yul\":447:526   */\n  tag_18\n  tag_19\n  jump\t// in\ntag_18:\n    /* \"#utility.yul\":409:528   */\ntag_17:\n    /* \"#utility.yul\":567:568   */\n  0x00\n    /* \"#utility.yul\":592:656   */\n  tag_20\n    /* \"#utility.yul\":648:655   */\n  dup6\n    /* \"#utility.yul\":639:645   */\n  dup3\n    /* \"#utility.yul\":628:637   */\n  dup7\n    /* \"#utility.yul\":624:646   */\n  add\n    /* \"#utility.yul\":592:656   */\n  tag_12\n  jump\t// in\ntag_20:\n    /* \"#utility.yul\":582:656   */\n  swap3\n  pop\n    /* \"#utility.yul\":538:666   */\n  pop\n    /* \"#utility.yul\":705:707   */\n  0x20\n    /* \"#utility.yul\":731:795   */\n  tag_21\n    /* \"#utility.yul\":787:794   */\n  dup6\n    /* \"#utility.yul\":778:784   */\n  dup3\n    /* \"#utility.yul\":767:776   */\n  dup7\n    /* \"#utility.yul\":763:785   */\n  add\n    /* \"#utility.yul\":731:795   */\n  tag_8\n  jump\t// in\ntag_21:\n    /* \"#utility.yul\":721:795   */\n  swap2\n  pop\n    /* \"#utility.yul\":676:805   */\n  pop\n    /* \"#utility.yul\":305:812   */\n  swap3\n  pop\n  swap3\n  swap1\n  pop\n  jump\t// out\n    /* \"#utility.yul\":899:995   */\ntag_24:\n    /* \"#utility.yul\":936:943   */\n  0x00\n    /* \"#utility.yul\":965:989   */\n  tag_26\n    /* \"#utility.yul\":983:988   */\n  dup3\n    /* \"#utility.yul\":965:989   */\n  tag_27\n  jump\t// in\ntag_26:\n    /* \"#utility.yul\":954:989   */\n  swap1\n  pop\n    /* \"#utility.yul\":899:995   */\n  swap2\n  swap1\n  pop\n  jump\t// out\n    /* \"#utility.yul\":1001:1127   */\ntag_27:\n    /* \"#utility.yul\":1038:1045   */\n  0x00\n    /* \"#utility.yul\":1078:1120   */\n  0xffffffffffffffffffffffffffffffffffffffff\n    /* \"#utility.yul\":1071:1076   */\n  dup3\n    /* \"#utility.yul\":1067:1121   */\n  and\n    /* \"#utility.yul\":1056:1121   */\n  swap1\n  pop\n    /* \"#utility.yul\":1001:1127   */\n  swap2\n  swap1\n  pop\n  jump\t// out\n    /* \"#utility.yul\":1133:1210   */\ntag_29:\n    /* \"#utility.yul\":1170:1177   */\n  0x00\n    /* \"#utility.yul\":1199:1204   */\n  dup2\n    /* \"#utility.yul\":1188:1204   */\n  swap1\n  pop\n    /* \"#utility.yul\":1133:1210   */\n  swap2\n  swap1\n  pop\n  jump\t// out\n    /* \"#utility.yul\":1339:1456   */\ntag_19:\n    /* \"#utility.yul\":1448:1449   */\n  0x00\n    /* \"#utility.yul\":1445:1446   */\n  dup1\n    /* \"#utility.yul\":1438:1450   */\n  revert\n    /* \"#utility.yul\":1462:1584   */\ntag_11:\n    /* \"#utility.yul\":1535:1559   */\n  tag_35\n    /* \"#utility.yul\":1553:1558   */\n  dup2\n    /* \"#utility.yul\":1535:1559   */\n  tag_24\n  jump\t// in\ntag_35:\n    /* \"#utility.yul\":1528:1533   */\n  dup2\n    /* \"#utility.yul\":1525:1560   */\n  eq\n    /* \"#utility.yul\":1515:1578   */\n  tag_36\n  jumpi\n    /* \"#utility.yul\":1574:1575   */\n  0x00\n    /* \"#utility.yul\":1571:1572   */\n  dup1\n    /* \"#utility.yul\":1564:1576   */\n  revert\n    /* \"#utility.yul\":1515:1578   */\ntag_36:\n    /* \"#utility.yul\":1462:1584   */\n  pop\n  jump\t// out\n    /* \"#utility.yul\":1590:1712   */\ntag_15:\n    /* \"#utility.yul\":1663:1687   */\n  tag_38\n    /* \"#utility.yul\":1681:1686   */\n  dup2\n    /* \"#utility.yul\":1663:1687   */\n  tag_29\n  jump\t// in\ntag_38:\n    /* \"#utility.yul\":1656:1661   */\n  dup2\n    /* \"#utility.yul\":1653:1688   */\n  eq\n    /* \"#utility.yul\":1643:1706   */\n  tag_39\n  jumpi\n    /* \"#utility.yul\":1702:1703   */\n  0x00\n    /* \"#utility.yul\":1699:1700   */\n  dup1\n    /* \"#utility.yul\":1692:1704   */\n  revert\n    /* \"#utility.yul\":1643:1706   */\ntag_39:\n    /* \"#utility.yul\":1590:1712   */\n  pop\n  jump\t// out\n    /* \"Kickstarter.sol\":427:2464  contract Campaigns {\r... */\ntag_6:\n  dataSize(sub_0)\n  dup1\n  dataOffset(sub_0)\n  0x00\n  codecopy\n  0x00\n  return\nstop\n\nsub_0: assembly {\n        /* \"Kickstarter.sol\":427:2464  contract Campaigns {\r... */\n      mstore(0x40, 0x80)\n      jumpi(tag_1, lt(calldatasize, 0x04))\n      shr(0xe0, calldataload(0x00))\n      dup1\n      0x8a9cfd55\n      gt\n      tag_13\n      jumpi\n      dup1\n      0x8a9cfd55\n      eq\n      tag_7\n      jumpi\n      dup1\n      0x937e09b1\n      eq\n      tag_8\n      jumpi\n      dup1\n      0xb16a867c\n      eq\n      tag_9\n      jumpi\n      dup1\n      0xd7bb99ba\n      eq\n      tag_10\n      jumpi\n      dup1\n      0xd7d1bbdb\n      eq\n      tag_11\n      jumpi\n      dup1\n      0xffbbfcb0\n      eq\n      tag_12\n      jumpi\n      jump(tag_1)\n    tag_13:\n      dup1\n      0x03441006\n      eq\n      tag_2\n      jumpi\n      dup1\n      0x0a144391\n      eq\n      tag_3\n      jumpi\n      dup1\n      0x3209e9e6\n      eq\n      tag_4\n      jumpi\n      dup1\n      0x481c6a75\n      eq\n      tag_5\n      jumpi\n      dup1\n      0x81d12c58\n      eq\n      tag_6\n      jumpi\n    tag_1:\n      0x00\n      dup1\n      revert\n        /* \"Kickstarter.sol\":1901:2174  function finalizeRequest(uint index) public managerUser {\r... */\n    tag_2:\n      callvalue\n      dup1\n      iszero\n      tag_14\n      jumpi\n      0x00\n      dup1\n      revert\n    tag_14:\n      pop\n      tag_15\n      0x04\n      dup1\n      calldatasize\n      sub\n      dup2\n      add\n      swap1\n      tag_16\n      swap2\n      swap1\n      tag_17\n      jump\t// in\n    tag_16:\n      tag_18\n      jump\t// in\n    tag_15:\n      stop\n        /* \"Kickstarter.sol\":726:767  mapping(address => bool) public approvers */\n    tag_3:\n      callvalue\n      dup1\n      iszero\n      tag_19\n      jumpi\n      0x00\n      dup1\n      revert\n    tag_19:\n      pop\n      tag_20\n      0x04\n      dup1\n      calldatasize\n      sub\n      dup2\n      add\n      swap1\n      tag_21\n      swap2\n      swap1\n      tag_22\n      jump\t// in\n    tag_21:\n      tag_23\n      jump\t// in\n    tag_20:\n      mload(0x40)\n      tag_24\n      swap2\n      swap1\n      tag_25\n      jump\t// in\n    tag_24:\n      mload(0x40)\n      dup1\n      swap2\n      sub\n      swap1\n      return\n        /* \"Kickstarter.sol\":1067:1148  function setMinimum(uint minimum) public {\r... */\n    tag_4:\n      callvalue\n      dup1\n      iszero\n      tag_26\n      jumpi\n      0x00\n      dup1\n      revert\n    tag_26:\n      pop\n      tag_27\n      0x04\n      dup1\n      calldatasize\n      sub\n      dup2\n      add\n      swap1\n      tag_28\n      swap2\n      swap1\n      tag_17\n      jump\t// in\n    tag_28:\n      tag_29\n      jump\t// in\n    tag_27:\n      stop\n        /* \"Kickstarter.sol\":656:678  address public manager */\n    tag_5:\n      callvalue\n      dup1\n      iszero\n      tag_30\n      jumpi\n      0x00\n      dup1\n      revert\n    tag_30:\n      pop\n      tag_31\n      tag_32\n      jump\t// in\n    tag_31:\n      mload(0x40)\n      tag_33\n      swap2\n      swap1\n      tag_34\n      jump\t// in\n    tag_33:\n      mload(0x40)\n      dup1\n      swap2\n      sub\n      swap1\n      return\n        /* \"Kickstarter.sol\":774:817  mapping(uint256 => Request) public requests */\n    tag_6:\n      callvalue\n      dup1\n      iszero\n      tag_35\n      jumpi\n      0x00\n      dup1\n      revert\n    tag_35:\n      pop\n      tag_36\n      0x04\n      dup1\n      calldatasize\n      sub\n      dup2\n      add\n      swap1\n      tag_37\n      swap2\n      swap1\n      tag_17\n      jump\t// in\n    tag_37:\n      tag_38\n      jump\t// in\n    tag_36:\n      mload(0x40)\n      tag_39\n      swap6\n      swap5\n      swap4\n      swap3\n      swap2\n      swap1\n      tag_40\n      jump\t// in\n    tag_39:\n      mload(0x40)\n      dup1\n      swap2\n      sub\n      swap1\n      return\n        /* \"Kickstarter.sol\":1341:1645  function createRequest(string memory description, uint256 value, address payable recipient\r... */\n    tag_7:\n      callvalue\n      dup1\n      iszero\n      tag_41\n      jumpi\n      0x00\n      dup1\n      revert\n    tag_41:\n      pop\n      tag_42\n      0x04\n      dup1\n      calldatasize\n      sub\n      dup2\n      add\n      swap1\n      tag_43\n      swap2\n      swap1\n      tag_44\n      jump\t// in\n    tag_43:\n      tag_45\n      jump\t// in\n    tag_42:\n      stop\n        /* \"Kickstarter.sol\":685:719  uint256 public minimumContribution */\n    tag_8:\n      callvalue\n      dup1\n      iszero\n      tag_46\n      jumpi\n      0x00\n      dup1\n      revert\n    tag_46:\n      pop\n      tag_47\n      tag_48\n      jump\t// in\n    tag_47:\n      mload(0x40)\n      tag_49\n      swap2\n      swap1\n      tag_50\n      jump\t// in\n    tag_49:\n      mload(0x40)\n      dup1\n      swap2\n      sub\n      swap1\n      return\n        /* \"Kickstarter.sol\":2178:2378  function summary() public view returns(uint, uint, uint, uint, address) {\r... */\n    tag_9:\n      callvalue\n      dup1\n      iszero\n      tag_51\n      jumpi\n      0x00\n      dup1\n      revert\n    tag_51:\n      pop\n      tag_52\n      tag_53\n      jump\t// in\n    tag_52:\n      mload(0x40)\n      tag_54\n      swap6\n      swap5\n      swap4\n      swap3\n      swap2\n      swap1\n      tag_55\n      jump\t// in\n    tag_54:\n      mload(0x40)\n      dup1\n      swap2\n      sub\n      swap1\n      return\n        /* \"Kickstarter.sol\":1152:1337  function contribute() public payable {\r... */\n    tag_10:\n      tag_56\n      tag_57\n      jump\t// in\n    tag_56:\n      stop\n        /* \"Kickstarter.sol\":1649:1897  function approveRequest(uint256 index) public {\r... */\n    tag_11:\n      callvalue\n      dup1\n      iszero\n      tag_58\n      jumpi\n      0x00\n      dup1\n      revert\n    tag_58:\n      pop\n      tag_59\n      0x04\n      dup1\n      calldatasize\n      sub\n      dup2\n      add\n      swap1\n      tag_60\n      swap2\n      swap1\n      tag_17\n      jump\t// in\n    tag_60:\n      tag_61\n      jump\t// in\n    tag_59:\n      stop\n        /* \"Kickstarter.sol\":2382:2461  function requestsLength() public view returns(uint) {\r... */\n    tag_12:\n      callvalue\n      dup1\n      iszero\n      tag_62\n      jumpi\n      0x00\n      dup1\n      revert\n    tag_62:\n      pop\n      tag_63\n      tag_64\n      jump\t// in\n    tag_63:\n      mload(0x40)\n      tag_65\n      swap2\n      swap1\n      tag_50\n      jump\t// in\n    tag_65:\n      mload(0x40)\n      dup1\n      swap2\n      sub\n      swap1\n      return\n        /* \"Kickstarter.sol\":1901:2174  function finalizeRequest(uint index) public managerUser {\r... */\n    tag_18:\n        /* \"Kickstarter.sol\":1043:1050  manager */\n      0x00\n      dup1\n      sload\n      swap1\n      0x0100\n      exp\n      swap1\n      div\n      0xffffffffffffffffffffffffffffffffffffffff\n      and\n        /* \"Kickstarter.sol\":1029:1050  msg.sender == manager */\n      0xffffffffffffffffffffffffffffffffffffffff\n      and\n        /* \"Kickstarter.sol\":1029:1039  msg.sender */\n      caller\n        /* \"Kickstarter.sol\":1029:1050  msg.sender == manager */\n      0xffffffffffffffffffffffffffffffffffffffff\n      and\n      eq\n        /* \"Kickstarter.sol\":1021:1051  require(msg.sender == manager) */\n      tag_67\n      jumpi\n      0x00\n      dup1\n      revert\n    tag_67:\n        /* \"Kickstarter.sol\":1962:1985  Request storage request */\n      0x00\n        /* \"Kickstarter.sol\":1988:1996  requests */\n      0x03\n        /* \"Kickstarter.sol\":1988:2003  requests[index] */\n      0x00\n        /* \"Kickstarter.sol\":1997:2002  index */\n      dup4\n        /* \"Kickstarter.sol\":1988:2003  requests[index] */\n      dup2\n      mstore\n      0x20\n      add\n      swap1\n      dup2\n      mstore\n      0x20\n      add\n      0x00\n      keccak256\n        /* \"Kickstarter.sol\":1962:2003  Request storage request = requests[index] */\n      swap1\n      pop\n        /* \"Kickstarter.sol\":2060:2061  2 */\n      0x02\n        /* \"Kickstarter.sol\":2043:2057  approversCount */\n      sload(0x05)\n        /* \"Kickstarter.sol\":2043:2061  approversCount / 2 */\n      tag_69\n      swap2\n      swap1\n      tag_70\n      jump\t// in\n    tag_69:\n        /* \"Kickstarter.sol\":2018:2025  request */\n      dup2\n        /* \"Kickstarter.sol\":2018:2039  request.approvalCount */\n      0x03\n      add\n      sload\n        /* \"Kickstarter.sol\":2018:2062  request.approvalCount > (approversCount / 2) */\n      gt\n        /* \"Kickstarter.sol\":2010:2063  require(request.approvalCount > (approversCount / 2)) */\n      tag_71\n      jumpi\n      0x00\n      dup1\n      revert\n    tag_71:\n        /* \"Kickstarter.sol\":2077:2084  request */\n      dup1\n        /* \"Kickstarter.sol\":2077:2093  request.complete */\n      0x02\n      add\n      0x14\n      swap1\n      sload\n      swap1\n      0x0100\n      exp\n      swap1\n      div\n      0xff\n      and\n        /* \"Kickstarter.sol\":2076:2093  !request.complete */\n      iszero\n        /* \"Kickstarter.sol\":2068:2094  require(!request.complete) */\n      tag_72\n      jumpi\n      0x00\n      dup1\n      revert\n    tag_72:\n        /* \"Kickstarter.sol\":2101:2108  request */\n      dup1\n        /* \"Kickstarter.sol\":2101:2118  request.recipient */\n      0x02\n      add\n      0x00\n      swap1\n      sload\n      swap1\n      0x0100\n      exp\n      swap1\n      div\n      0xffffffffffffffffffffffffffffffffffffffff\n      and\n        /* \"Kickstarter.sol\":2101:2127  request.recipient.transfer */\n      0xffffffffffffffffffffffffffffffffffffffff\n      and\n        /* \"Kickstarter.sol\":2101:2142  request.recipient.transfer(request.value) */\n      0x08fc\n        /* \"Kickstarter.sol\":2128:2135  request */\n      dup3\n        /* \"Kickstarter.sol\":2128:2141  request.value */\n      0x01\n      add\n      sload\n        /* \"Kickstarter.sol\":2101:2142  request.recipient.transfer(request.value) */\n      swap1\n      dup2\n      iszero\n      mul\n      swap1\n      mload(0x40)\n      0x00\n      mload(0x40)\n      dup1\n      dup4\n      sub\n      dup2\n      dup6\n      dup9\n      dup9\n      call\n      swap4\n      pop\n      pop\n      pop\n      pop\n      iszero\n      dup1\n      iszero\n      tag_74\n      jumpi\n      returndatasize\n      0x00\n      dup1\n      returndatacopy\n      revert(0x00, returndatasize)\n    tag_74:\n      pop\n        /* \"Kickstarter.sol\":2166:2170  true */\n      0x01\n        /* \"Kickstarter.sol\":2147:2154  request */\n      dup2\n        /* \"Kickstarter.sol\":2147:2163  request.complete */\n      0x02\n      add\n      0x14\n        /* \"Kickstarter.sol\":2147:2170  request.complete = true */\n      0x0100\n      exp\n      dup2\n      sload\n      dup2\n      0xff\n      mul\n      not\n      and\n      swap1\n      dup4\n      iszero\n      iszero\n      mul\n      or\n      swap1\n      sstore\n      pop\n        /* \"Kickstarter.sol\":1957:2174  {\r... */\n      pop\n        /* \"Kickstarter.sol\":1901:2174  function finalizeRequest(uint index) public managerUser {\r... */\n      pop\n      jump\t// out\n        /* \"Kickstarter.sol\":726:767  mapping(address => bool) public approvers */\n    tag_23:\n      mstore(0x20, 0x02)\n      dup1\n      0x00\n      mstore\n      keccak256(0x00, 0x40)\n      0x00\n      swap2\n      pop\n      sload\n      swap1\n      0x0100\n      exp\n      swap1\n      div\n      0xff\n      and\n      dup2\n      jump\t// out\n        /* \"Kickstarter.sol\":1067:1148  function setMinimum(uint minimum) public {\r... */\n    tag_29:\n        /* \"Kickstarter.sol\":1137:1144  minimum */\n      dup1\n        /* \"Kickstarter.sol\":1115:1134  minimumContribution */\n      0x01\n        /* \"Kickstarter.sol\":1115:1144  minimumContribution = minimum */\n      dup2\n      swap1\n      sstore\n      pop\n        /* \"Kickstarter.sol\":1067:1148  function setMinimum(uint minimum) public {\r... */\n      pop\n      jump\t// out\n        /* \"Kickstarter.sol\":656:678  address public manager */\n    tag_32:\n      0x00\n      dup1\n      sload\n      swap1\n      0x0100\n      exp\n      swap1\n      div\n      0xffffffffffffffffffffffffffffffffffffffff\n      and\n      dup2\n      jump\t// out\n        /* \"Kickstarter.sol\":774:817  mapping(uint256 => Request) public requests */\n    tag_38:\n      mstore(0x20, 0x03)\n      dup1\n      0x00\n      mstore\n      keccak256(0x00, 0x40)\n      0x00\n      swap2\n      pop\n      swap1\n      pop\n      dup1\n      0x00\n      add\n      dup1\n      sload\n      tag_76\n      swap1\n      tag_77\n      jump\t// in\n    tag_76:\n      dup1\n      0x1f\n      add\n      0x20\n      dup1\n      swap2\n      div\n      mul\n      0x20\n      add\n      mload(0x40)\n      swap1\n      dup2\n      add\n      0x40\n      mstore\n      dup1\n      swap3\n      swap2\n      swap1\n      dup2\n      dup2\n      mstore\n      0x20\n      add\n      dup3\n      dup1\n      sload\n      tag_78\n      swap1\n      tag_77\n      jump\t// in\n    tag_78:\n      dup1\n      iszero\n      tag_79\n      jumpi\n      dup1\n      0x1f\n      lt\n      tag_80\n      jumpi\n      0x0100\n      dup1\n      dup4\n      sload\n      div\n      mul\n      dup4\n      mstore\n      swap2\n      0x20\n      add\n      swap2\n      jump(tag_79)\n    tag_80:\n      dup3\n      add\n      swap2\n      swap1\n      0x00\n      mstore\n      keccak256(0x00, 0x20)\n      swap1\n    tag_81:\n      dup2\n      sload\n      dup2\n      mstore\n      swap1\n      0x01\n      add\n      swap1\n      0x20\n      add\n      dup1\n      dup4\n      gt\n      tag_81\n      jumpi\n      dup3\n      swap1\n      sub\n      0x1f\n      and\n      dup3\n      add\n      swap2\n    tag_79:\n      pop\n      pop\n      pop\n      pop\n      pop\n      swap1\n      dup1\n      0x01\n      add\n      sload\n      swap1\n      dup1\n      0x02\n      add\n      0x00\n      swap1\n      sload\n      swap1\n      0x0100\n      exp\n      swap1\n      div\n      0xffffffffffffffffffffffffffffffffffffffff\n      and\n      swap1\n      dup1\n      0x02\n      add\n      0x14\n      swap1\n      sload\n      swap1\n      0x0100\n      exp\n      swap1\n      div\n      0xff\n      and\n      swap1\n      dup1\n      0x03\n      add\n      sload\n      swap1\n      pop\n      dup6\n      jump\t// out\n        /* \"Kickstarter.sol\":1341:1645  function createRequest(string memory description, uint256 value, address payable recipient\r... */\n    tag_45:\n        /* \"Kickstarter.sol\":1043:1050  manager */\n      0x00\n      dup1\n      sload\n      swap1\n      0x0100\n      exp\n      swap1\n      div\n      0xffffffffffffffffffffffffffffffffffffffff\n      and\n        /* \"Kickstarter.sol\":1029:1050  msg.sender == manager */\n      0xffffffffffffffffffffffffffffffffffffffff\n      and\n        /* \"Kickstarter.sol\":1029:1039  msg.sender */\n      caller\n        /* \"Kickstarter.sol\":1029:1050  msg.sender == manager */\n      0xffffffffffffffffffffffffffffffffffffffff\n      and\n      eq\n        /* \"Kickstarter.sol\":1021:1051  require(msg.sender == manager) */\n      tag_83\n      jumpi\n      0x00\n      dup1\n      revert\n    tag_83:\n        /* \"Kickstarter.sol\":1461:1478  Request storage r */\n      0x00\n        /* \"Kickstarter.sol\":1481:1489  requests */\n      0x03\n        /* \"Kickstarter.sol\":1481:1504  requests[numRequests++] */\n      0x00\n        /* \"Kickstarter.sol\":1490:1501  numRequests */\n      0x04\n      0x00\n        /* \"Kickstarter.sol\":1490:1503  numRequests++ */\n      dup2\n      sload\n      dup1\n      swap3\n      swap2\n      swap1\n      tag_85\n      swap1\n      tag_86\n      jump\t// in\n    tag_85:\n      swap2\n      swap1\n      pop\n      sstore\n        /* \"Kickstarter.sol\":1481:1504  requests[numRequests++] */\n      dup2\n      mstore\n      0x20\n      add\n      swap1\n      dup2\n      mstore\n      0x20\n      add\n      0x00\n      keccak256\n        /* \"Kickstarter.sol\":1461:1504  Request storage r = requests[numRequests++] */\n      swap1\n      pop\n        /* \"Kickstarter.sol\":1527:1538  description */\n      dup4\n        /* \"Kickstarter.sol\":1511:1512  r */\n      dup2\n        /* \"Kickstarter.sol\":1511:1524  r.description */\n      0x00\n      add\n        /* \"Kickstarter.sol\":1511:1538  r.description = description */\n      swap1\n      dup1\n      mload\n      swap1\n      0x20\n      add\n      swap1\n      tag_87\n      swap3\n      swap2\n      swap1\n      tag_88\n      jump\t// in\n    tag_87:\n      pop\n        /* \"Kickstarter.sol\":1555:1560  value */\n      dup3\n        /* \"Kickstarter.sol\":1545:1546  r */\n      dup2\n        /* \"Kickstarter.sol\":1545:1552  r.value */\n      0x01\n      add\n        /* \"Kickstarter.sol\":1545:1560  r.value = value */\n      dup2\n      swap1\n      sstore\n      pop\n        /* \"Kickstarter.sol\":1581:1590  recipient */\n      dup2\n        /* \"Kickstarter.sol\":1567:1568  r */\n      dup2\n        /* \"Kickstarter.sol\":1567:1578  r.recipient */\n      0x02\n      add\n      0x00\n        /* \"Kickstarter.sol\":1567:1590  r.recipient = recipient */\n      0x0100\n      exp\n      dup2\n      sload\n      dup2\n      0xffffffffffffffffffffffffffffffffffffffff\n      mul\n      not\n      and\n      swap1\n      dup4\n      0xffffffffffffffffffffffffffffffffffffffff\n      and\n      mul\n      or\n      swap1\n      sstore\n      pop\n        /* \"Kickstarter.sol\":1610:1615  false */\n      0x00\n        /* \"Kickstarter.sol\":1597:1598  r */\n      dup2\n        /* \"Kickstarter.sol\":1597:1607  r.complete */\n      0x02\n      add\n      0x14\n        /* \"Kickstarter.sol\":1597:1615  r.complete = false */\n      0x0100\n      exp\n      dup2\n      sload\n      dup2\n      0xff\n      mul\n      not\n      and\n      swap1\n      dup4\n      iszero\n      iszero\n      mul\n      or\n      swap1\n      sstore\n      pop\n        /* \"Kickstarter.sol\":1640:1641  0 */\n      0x00\n        /* \"Kickstarter.sol\":1622:1623  r */\n      dup2\n        /* \"Kickstarter.sol\":1622:1637  r.approvalCount */\n      0x03\n      add\n        /* \"Kickstarter.sol\":1622:1641  r.approvalCount = 0 */\n      dup2\n      swap1\n      sstore\n      pop\n        /* \"Kickstarter.sol\":1454:1645  {\r... */\n      pop\n        /* \"Kickstarter.sol\":1341:1645  function createRequest(string memory description, uint256 value, address payable recipient\r... */\n      pop\n      pop\n      pop\n      jump\t// out\n        /* \"Kickstarter.sol\":685:719  uint256 public minimumContribution */\n    tag_48:\n      sload(0x01)\n      dup2\n      jump\t// out\n        /* \"Kickstarter.sol\":2178:2378  function summary() public view returns(uint, uint, uint, uint, address) {\r... */\n    tag_53:\n        /* \"Kickstarter.sol\":2217:2221  uint */\n      0x00\n        /* \"Kickstarter.sol\":2223:2227  uint */\n      dup1\n        /* \"Kickstarter.sol\":2229:2233  uint */\n      0x00\n        /* \"Kickstarter.sol\":2235:2239  uint */\n      dup1\n        /* \"Kickstarter.sol\":2241:2248  address */\n      0x00\n        /* \"Kickstarter.sol\":2269:2290  address(this).balance */\n      selfbalance\n        /* \"Kickstarter.sol\":2297:2316  minimumContribution */\n      sload(0x01)\n        /* \"Kickstarter.sol\":2323:2334  numRequests */\n      sload(0x04)\n        /* \"Kickstarter.sol\":2341:2355  approversCount */\n      sload(0x05)\n        /* \"Kickstarter.sol\":2362:2369  manager */\n      0x00\n      dup1\n      sload\n      swap1\n      0x0100\n      exp\n      swap1\n      div\n      0xffffffffffffffffffffffffffffffffffffffff\n      and\n        /* \"Kickstarter.sol\":2255:2374  return (\r... */\n      swap5\n      pop\n      swap5\n      pop\n      swap5\n      pop\n      swap5\n      pop\n      swap5\n      pop\n        /* \"Kickstarter.sol\":2178:2378  function summary() public view returns(uint, uint, uint, uint, address) {\r... */\n      swap1\n      swap2\n      swap3\n      swap4\n      swap5\n      jump\t// out\n        /* \"Kickstarter.sol\":1152:1337  function contribute() public payable {\r... */\n    tag_57:\n        /* \"Kickstarter.sol\":1217:1236  minimumContribution */\n      sload(0x01)\n        /* \"Kickstarter.sol\":1204:1213  msg.value */\n      callvalue\n        /* \"Kickstarter.sol\":1204:1236  msg.value >= minimumContribution */\n      lt\n      iszero\n        /* \"Kickstarter.sol\":1196:1275  require(msg.value >= minimumContribution, 'You need to contribute the minimum') */\n      tag_91\n      jumpi\n      mload(0x40)\n      0x08c379a000000000000000000000000000000000000000000000000000000000\n      dup2\n      mstore\n      0x04\n      add\n      tag_92\n      swap1\n      tag_93\n      jump\t// in\n    tag_92:\n      mload(0x40)\n      dup1\n      swap2\n      sub\n      swap1\n      revert\n    tag_91:\n        /* \"Kickstarter.sol\":1306:1310  true */\n      0x01\n        /* \"Kickstarter.sol\":1282:1291  approvers */\n      0x02\n        /* \"Kickstarter.sol\":1282:1303  approvers[msg.sender] */\n      0x00\n        /* \"Kickstarter.sol\":1292:1302  msg.sender */\n      caller\n        /* \"Kickstarter.sol\":1282:1303  approvers[msg.sender] */\n      0xffffffffffffffffffffffffffffffffffffffff\n      and\n      0xffffffffffffffffffffffffffffffffffffffff\n      and\n      dup2\n      mstore\n      0x20\n      add\n      swap1\n      dup2\n      mstore\n      0x20\n      add\n      0x00\n      keccak256\n      0x00\n        /* \"Kickstarter.sol\":1282:1310  approvers[msg.sender] = true */\n      0x0100\n      exp\n      dup2\n      sload\n      dup2\n      0xff\n      mul\n      not\n      and\n      swap1\n      dup4\n      iszero\n      iszero\n      mul\n      or\n      swap1\n      sstore\n      pop\n        /* \"Kickstarter.sol\":1317:1331  approversCount */\n      0x05\n      0x00\n        /* \"Kickstarter.sol\":1317:1333  approversCount++ */\n      dup2\n      sload\n      dup1\n      swap3\n      swap2\n      swap1\n      tag_94\n      swap1\n      tag_86\n      jump\t// in\n    tag_94:\n      swap2\n      swap1\n      pop\n      sstore\n      pop\n        /* \"Kickstarter.sol\":1152:1337  function contribute() public payable {\r... */\n      jump\t// out\n        /* \"Kickstarter.sol\":1649:1897  function approveRequest(uint256 index) public {\r... */\n    tag_61:\n        /* \"Kickstarter.sol\":1700:1723  Request storage request */\n      0x00\n        /* \"Kickstarter.sol\":1726:1734  requests */\n      0x03\n        /* \"Kickstarter.sol\":1726:1741  requests[index] */\n      0x00\n        /* \"Kickstarter.sol\":1735:1740  index */\n      dup4\n        /* \"Kickstarter.sol\":1726:1741  requests[index] */\n      dup2\n      mstore\n      0x20\n      add\n      swap1\n      dup2\n      mstore\n      0x20\n      add\n      0x00\n      keccak256\n        /* \"Kickstarter.sol\":1700:1741  Request storage request = requests[index] */\n      swap1\n      pop\n        /* \"Kickstarter.sol\":1756:1765  approvers */\n      0x02\n        /* \"Kickstarter.sol\":1756:1777  approvers[msg.sender] */\n      0x00\n        /* \"Kickstarter.sol\":1766:1776  msg.sender */\n      caller\n        /* \"Kickstarter.sol\":1756:1777  approvers[msg.sender] */\n      0xffffffffffffffffffffffffffffffffffffffff\n      and\n      0xffffffffffffffffffffffffffffffffffffffff\n      and\n      dup2\n      mstore\n      0x20\n      add\n      swap1\n      dup2\n      mstore\n      0x20\n      add\n      0x00\n      keccak256\n      0x00\n      swap1\n      sload\n      swap1\n      0x0100\n      exp\n      swap1\n      div\n      0xff\n      and\n        /* \"Kickstarter.sol\":1748:1778  require(approvers[msg.sender]) */\n      tag_96\n      jumpi\n      0x00\n      dup1\n      revert\n    tag_96:\n        /* \"Kickstarter.sol\":1792:1799  request */\n      dup1\n        /* \"Kickstarter.sol\":1792:1809  request.approvals */\n      0x04\n      add\n        /* \"Kickstarter.sol\":1792:1821  request.approvals[msg.sender] */\n      0x00\n        /* \"Kickstarter.sol\":1810:1820  msg.sender */\n      caller\n        /* \"Kickstarter.sol\":1792:1821  request.approvals[msg.sender] */\n      0xffffffffffffffffffffffffffffffffffffffff\n      and\n      0xffffffffffffffffffffffffffffffffffffffff\n      and\n      dup2\n      mstore\n      0x20\n      add\n      swap1\n      dup2\n      mstore\n      0x20\n      add\n      0x00\n      keccak256\n      0x00\n      swap1\n      sload\n      swap1\n      0x0100\n      exp\n      swap1\n      div\n      0xff\n      and\n        /* \"Kickstarter.sol\":1791:1821  !request.approvals[msg.sender] */\n      iszero\n        /* \"Kickstarter.sol\":1783:1822  require(!request.approvals[msg.sender]) */\n      tag_97\n      jumpi\n      0x00\n      dup1\n      revert\n    tag_97:\n        /* \"Kickstarter.sol\":1861:1865  true */\n      0x01\n        /* \"Kickstarter.sol\":1829:1836  request */\n      dup2\n        /* \"Kickstarter.sol\":1829:1846  request.approvals */\n      0x04\n      add\n        /* \"Kickstarter.sol\":1829:1858  request.approvals[msg.sender] */\n      0x00\n        /* \"Kickstarter.sol\":1847:1857  msg.sender */\n      caller\n        /* \"Kickstarter.sol\":1829:1858  request.approvals[msg.sender] */\n      0xffffffffffffffffffffffffffffffffffffffff\n      and\n      0xffffffffffffffffffffffffffffffffffffffff\n      and\n      dup2\n      mstore\n      0x20\n      add\n      swap1\n      dup2\n      mstore\n      0x20\n      add\n      0x00\n      keccak256\n      0x00\n        /* \"Kickstarter.sol\":1829:1865  request.approvals[msg.sender] = true */\n      0x0100\n      exp\n      dup2\n      sload\n      dup2\n      0xff\n      mul\n      not\n      and\n      swap1\n      dup4\n      iszero\n      iszero\n      mul\n      or\n      swap1\n      sstore\n      pop\n        /* \"Kickstarter.sol\":1870:1877  request */\n      dup1\n        /* \"Kickstarter.sol\":1870:1891  request.approvalCount */\n      0x03\n      add\n      0x00\n        /* \"Kickstarter.sol\":1870:1893  request.approvalCount++ */\n      dup2\n      sload\n      dup1\n      swap3\n      swap2\n      swap1\n      tag_98\n      swap1\n      tag_86\n      jump\t// in\n    tag_98:\n      swap2\n      swap1\n      pop\n      sstore\n      pop\n        /* \"Kickstarter.sol\":1695:1897  {\r... */\n      pop\n        /* \"Kickstarter.sol\":1649:1897  function approveRequest(uint256 index) public {\r... */\n      pop\n      jump\t// out\n        /* \"Kickstarter.sol\":2382:2461  function requestsLength() public view returns(uint) {\r... */\n    tag_64:\n        /* \"Kickstarter.sol\":2428:2432  uint */\n      0x00\n        /* \"Kickstarter.sol\":2446:2457  numRequests */\n      sload(0x04)\n        /* \"Kickstarter.sol\":2439:2457  return numRequests */\n      swap1\n      pop\n        /* \"Kickstarter.sol\":2382:2461  function requestsLength() public view returns(uint) {\r... */\n      swap1\n      jump\t// out\n    tag_88:\n      dup3\n      dup1\n      sload\n      tag_100\n      swap1\n      tag_77\n      jump\t// in\n    tag_100:\n      swap1\n      0x00\n      mstore\n      keccak256(0x00, 0x20)\n      swap1\n      0x1f\n      add\n      0x20\n      swap1\n      div\n      dup2\n      add\n      swap3\n      dup3\n      tag_102\n      jumpi\n      0x00\n      dup6\n      sstore\n      jump(tag_101)\n    tag_102:\n      dup3\n      0x1f\n      lt\n      tag_103\n      jumpi\n      dup1\n      mload\n      not(0xff)\n      and\n      dup4\n      dup1\n      add\n      or\n      dup6\n      sstore\n      jump(tag_101)\n    tag_103:\n      dup3\n      dup1\n      add\n      0x01\n      add\n      dup6\n      sstore\n      dup3\n      iszero\n      tag_101\n      jumpi\n      swap2\n      dup3\n      add\n    tag_104:\n      dup3\n      dup2\n      gt\n      iszero\n      tag_105\n      jumpi\n      dup3\n      mload\n      dup3\n      sstore\n      swap2\n      0x20\n      add\n      swap2\n      swap1\n      0x01\n      add\n      swap1\n      jump(tag_104)\n    tag_105:\n    tag_101:\n      pop\n      swap1\n      pop\n      tag_106\n      swap2\n      swap1\n      tag_107\n      jump\t// in\n    tag_106:\n      pop\n      swap1\n      jump\t// out\n    tag_107:\n    tag_108:\n      dup1\n      dup3\n      gt\n      iszero\n      tag_109\n      jumpi\n      0x00\n      dup2\n      0x00\n      swap1\n      sstore\n      pop\n      0x01\n      add\n      jump(tag_108)\n    tag_109:\n      pop\n      swap1\n      jump\t// out\n        /* \"#utility.yul\":7:419   */\n    tag_111:\n        /* \"#utility.yul\":85:90   */\n      0x00\n        /* \"#utility.yul\":110:176   */\n      tag_113\n        /* \"#utility.yul\":126:175   */\n      tag_114\n        /* \"#utility.yul\":168:174   */\n      dup5\n        /* \"#utility.yul\":126:175   */\n      tag_115\n      jump\t// in\n    tag_114:\n        /* \"#utility.yul\":110:176   */\n      tag_116\n      jump\t// in\n    tag_113:\n        /* \"#utility.yul\":101:176   */\n      swap1\n      pop\n        /* \"#utility.yul\":199:205   */\n      dup3\n        /* \"#utility.yul\":192:197   */\n      dup2\n        /* \"#utility.yul\":185:206   */\n      mstore\n        /* \"#utility.yul\":237:241   */\n      0x20\n        /* \"#utility.yul\":230:235   */\n      dup2\n        /* \"#utility.yul\":226:242   */\n      add\n        /* \"#utility.yul\":275:278   */\n      dup5\n        /* \"#utility.yul\":266:272   */\n      dup5\n        /* \"#utility.yul\":261:264   */\n      dup5\n        /* \"#utility.yul\":257:273   */\n      add\n        /* \"#utility.yul\":254:279   */\n      gt\n        /* \"#utility.yul\":251:363   */\n      iszero\n      tag_117\n      jumpi\n        /* \"#utility.yul\":282:361   */\n      tag_118\n      tag_119\n      jump\t// in\n    tag_118:\n        /* \"#utility.yul\":251:363   */\n    tag_117:\n        /* \"#utility.yul\":372:413   */\n      tag_120\n        /* \"#utility.yul\":406:412   */\n      dup5\n        /* \"#utility.yul\":401:404   */\n      dup3\n        /* \"#utility.yul\":396:399   */\n      dup6\n        /* \"#utility.yul\":372:413   */\n      tag_121\n      jump\t// in\n    tag_120:\n        /* \"#utility.yul\":91:419   */\n      pop\n        /* \"#utility.yul\":7:419   */\n      swap4\n      swap3\n      pop\n      pop\n      pop\n      jump\t// out\n        /* \"#utility.yul\":425:564   */\n    tag_122:\n        /* \"#utility.yul\":471:476   */\n      0x00\n        /* \"#utility.yul\":509:515   */\n      dup2\n        /* \"#utility.yul\":496:516   */\n      calldataload\n        /* \"#utility.yul\":487:516   */\n      swap1\n      pop\n        /* \"#utility.yul\":525:558   */\n      tag_124\n        /* \"#utility.yul\":552:557   */\n      dup2\n        /* \"#utility.yul\":525:558   */\n      tag_125\n      jump\t// in\n    tag_124:\n        /* \"#utility.yul\":425:564   */\n      swap3\n      swap2\n      pop\n      pop\n      jump\t// out\n        /* \"#utility.yul\":570:725   */\n    tag_126:\n        /* \"#utility.yul\":624:629   */\n      0x00\n        /* \"#utility.yul\":662:668   */\n      dup2\n        /* \"#utility.yul\":649:669   */\n      calldataload\n        /* \"#utility.yul\":640:669   */\n      swap1\n      pop\n        /* \"#utility.yul\":678:719   */\n      tag_128\n        /* \"#utility.yul\":713:718   */\n      dup2\n        /* \"#utility.yul\":678:719   */\n      tag_129\n      jump\t// in\n    tag_128:\n        /* \"#utility.yul\":570:725   */\n      swap3\n      swap2\n      pop\n      pop\n      jump\t// out\n        /* \"#utility.yul\":745:1085   */\n    tag_130:\n        /* \"#utility.yul\":801:806   */\n      0x00\n        /* \"#utility.yul\":850:853   */\n      dup3\n        /* \"#utility.yul\":843:847   */\n      0x1f\n        /* \"#utility.yul\":835:841   */\n      dup4\n        /* \"#utility.yul\":831:848   */\n      add\n        /* \"#utility.yul\":827:854   */\n      slt\n        /* \"#utility.yul\":817:939   */\n      tag_132\n      jumpi\n        /* \"#utility.yul\":858:937   */\n      tag_133\n      tag_134\n      jump\t// in\n    tag_133:\n        /* \"#utility.yul\":817:939   */\n    tag_132:\n        /* \"#utility.yul\":975:981   */\n      dup2\n        /* \"#utility.yul\":962:982   */\n      calldataload\n        /* \"#utility.yul\":1000:1079   */\n      tag_135\n        /* \"#utility.yul\":1075:1078   */\n      dup5\n        /* \"#utility.yul\":1067:1073   */\n      dup3\n        /* \"#utility.yul\":1060:1064   */\n      0x20\n        /* \"#utility.yul\":1052:1058   */\n      dup7\n        /* \"#utility.yul\":1048:1065   */\n      add\n        /* \"#utility.yul\":1000:1079   */\n      tag_111\n      jump\t// in\n    tag_135:\n        /* \"#utility.yul\":991:1079   */\n      swap2\n      pop\n        /* \"#utility.yul\":807:1085   */\n      pop\n        /* \"#utility.yul\":745:1085   */\n      swap3\n      swap2\n      pop\n      pop\n      jump\t// out\n        /* \"#utility.yul\":1091:1230   */\n    tag_136:\n        /* \"#utility.yul\":1137:1142   */\n      0x00\n        /* \"#utility.yul\":1175:1181   */\n      dup2\n        /* \"#utility.yul\":1162:1182   */\n      calldataload\n        /* \"#utility.yul\":1153:1182   */\n      swap1\n      pop\n        /* \"#utility.yul\":1191:1224   */\n      tag_138\n        /* \"#utility.yul\":1218:1223   */\n      dup2\n        /* \"#utility.yul\":1191:1224   */\n      tag_139\n      jump\t// in\n    tag_138:\n        /* \"#utility.yul\":1091:1230   */\n      swap3\n      swap2\n      pop\n      pop\n      jump\t// out\n        /* \"#utility.yul\":1236:1565   */\n    tag_22:\n        /* \"#utility.yul\":1295:1301   */\n      0x00\n        /* \"#utility.yul\":1344:1346   */\n      0x20\n        /* \"#utility.yul\":1332:1341   */\n      dup3\n        /* \"#utility.yul\":1323:1330   */\n      dup5\n        /* \"#utility.yul\":1319:1342   */\n      sub\n        /* \"#utility.yul\":1315:1347   */\n      slt\n        /* \"#utility.yul\":1312:1431   */\n      iszero\n      tag_141\n      jumpi\n        /* \"#utility.yul\":1350:1429   */\n      tag_142\n      tag_143\n      jump\t// in\n    tag_142:\n        /* \"#utility.yul\":1312:1431   */\n    tag_141:\n        /* \"#utility.yul\":1470:1471   */\n      0x00\n        /* \"#utility.yul\":1495:1548   */\n      tag_144\n        /* \"#utility.yul\":1540:1547   */\n      dup5\n        /* \"#utility.yul\":1531:1537   */\n      dup3\n        /* \"#utility.yul\":1520:1529   */\n      dup6\n        /* \"#utility.yul\":1516:1538   */\n      add\n        /* \"#utility.yul\":1495:1548   */\n      tag_122\n      jump\t// in\n    tag_144:\n        /* \"#utility.yul\":1485:1548   */\n      swap2\n      pop\n        /* \"#utility.yul\":1441:1558   */\n      pop\n        /* \"#utility.yul\":1236:1565   */\n      swap3\n      swap2\n      pop\n      pop\n      jump\t// out\n        /* \"#utility.yul\":1571:2386   */\n    tag_44:\n        /* \"#utility.yul\":1666:1672   */\n      0x00\n        /* \"#utility.yul\":1674:1680   */\n      dup1\n        /* \"#utility.yul\":1682:1688   */\n      0x00\n        /* \"#utility.yul\":1731:1733   */\n      0x60\n        /* \"#utility.yul\":1719:1728   */\n      dup5\n        /* \"#utility.yul\":1710:1717   */\n      dup7\n        /* \"#utility.yul\":1706:1729   */\n      sub\n        /* \"#utility.yul\":1702:1734   */\n      slt\n        /* \"#utility.yul\":1699:1818   */\n      iszero\n      tag_146\n      jumpi\n        /* \"#utility.yul\":1737:1816   */\n      tag_147\n      tag_143\n      jump\t// in\n    tag_147:\n        /* \"#utility.yul\":1699:1818   */\n    tag_146:\n        /* \"#utility.yul\":1885:1886   */\n      0x00\n        /* \"#utility.yul\":1874:1883   */\n      dup5\n        /* \"#utility.yul\":1870:1887   */\n      add\n        /* \"#utility.yul\":1857:1888   */\n      calldataload\n        /* \"#utility.yul\":1915:1933   */\n      0xffffffffffffffff\n        /* \"#utility.yul\":1907:1913   */\n      dup2\n        /* \"#utility.yul\":1904:1934   */\n      gt\n        /* \"#utility.yul\":1901:2018   */\n      iszero\n      tag_148\n      jumpi\n        /* \"#utility.yul\":1937:2016   */\n      tag_149\n      tag_150\n      jump\t// in\n    tag_149:\n        /* \"#utility.yul\":1901:2018   */\n    tag_148:\n        /* \"#utility.yul\":2042:2105   */\n      tag_151\n        /* \"#utility.yul\":2097:2104   */\n      dup7\n        /* \"#utility.yul\":2088:2094   */\n      dup3\n        /* \"#utility.yul\":2077:2086   */\n      dup8\n        /* \"#utility.yul\":2073:2095   */\n      add\n        /* \"#utility.yul\":2042:2105   */\n      tag_130\n      jump\t// in\n    tag_151:\n        /* \"#utility.yul\":2032:2105   */\n      swap4\n      pop\n        /* \"#utility.yul\":1828:2115   */\n      pop\n        /* \"#utility.yul\":2154:2156   */\n      0x20\n        /* \"#utility.yul\":2180:2233   */\n      tag_152\n        /* \"#utility.yul\":2225:2232   */\n      dup7\n        /* \"#utility.yul\":2216:2222   */\n      dup3\n        /* \"#utility.yul\":2205:2214   */\n      dup8\n        /* \"#utility.yul\":2201:2223   */\n      add\n        /* \"#utility.yul\":2180:2233   */\n      tag_136\n      jump\t// in\n    tag_152:\n        /* \"#utility.yul\":2170:2233   */\n      swap3\n      pop\n        /* \"#utility.yul\":2125:2243   */\n      pop\n        /* \"#utility.yul\":2282:2284   */\n      0x40\n        /* \"#utility.yul\":2308:2369   */\n      tag_153\n        /* \"#utility.yul\":2361:2368   */\n      dup7\n        /* \"#utility.yul\":2352:2358   */\n      dup3\n        /* \"#utility.yul\":2341:2350   */\n      dup8\n        /* \"#utility.yul\":2337:2359   */\n      add\n        /* \"#utility.yul\":2308:2369   */\n      tag_126\n      jump\t// in\n    tag_153:\n        /* \"#utility.yul\":2298:2369   */\n      swap2\n      pop\n        /* \"#utility.yul\":2253:2379   */\n      pop\n        /* \"#utility.yul\":1571:2386   */\n      swap3\n      pop\n      swap3\n      pop\n      swap3\n      jump\t// out\n        /* \"#utility.yul\":2392:2721   */\n    tag_17:\n        /* \"#utility.yul\":2451:2457   */\n      0x00\n        /* \"#utility.yul\":2500:2502   */\n      0x20\n        /* \"#utility.yul\":2488:2497   */\n      dup3\n        /* \"#utility.yul\":2479:2486   */\n      dup5\n        /* \"#utility.yul\":2475:2498   */\n      sub\n        /* \"#utility.yul\":2471:2503   */\n      slt\n        /* \"#utility.yul\":2468:2587   */\n      iszero\n      tag_155\n      jumpi\n        /* \"#utility.yul\":2506:2585   */\n      tag_156\n      tag_143\n      jump\t// in\n    tag_156:\n        /* \"#utility.yul\":2468:2587   */\n    tag_155:\n        /* \"#utility.yul\":2626:2627   */\n      0x00\n        /* \"#utility.yul\":2651:2704   */\n      tag_157\n        /* \"#utility.yul\":2696:2703   */\n      dup5\n        /* \"#utility.yul\":2687:2693   */\n      dup3\n        /* \"#utility.yul\":2676:2685   */\n      dup6\n        /* \"#utility.yul\":2672:2694   */\n      add\n        /* \"#utility.yul\":2651:2704   */\n      tag_136\n      jump\t// in\n    tag_157:\n        /* \"#utility.yul\":2641:2704   */\n      swap2\n      pop\n        /* \"#utility.yul\":2597:2714   */\n      pop\n        /* \"#utility.yul\":2392:2721   */\n      swap3\n      swap2\n      pop\n      pop\n      jump\t// out\n        /* \"#utility.yul\":2727:2869   */\n    tag_158:\n        /* \"#utility.yul\":2830:2862   */\n      tag_160\n        /* \"#utility.yul\":2856:2861   */\n      dup2\n        /* \"#utility.yul\":2830:2862   */\n      tag_161\n      jump\t// in\n    tag_160:\n        /* \"#utility.yul\":2825:2828   */\n      dup3\n        /* \"#utility.yul\":2818:2863   */\n      mstore\n        /* \"#utility.yul\":2727:2869   */\n      pop\n      pop\n      jump\t// out\n        /* \"#utility.yul\":2875:2993   */\n    tag_162:\n        /* \"#utility.yul\":2962:2986   */\n      tag_164\n        /* \"#utility.yul\":2980:2985   */\n      dup2\n        /* \"#utility.yul\":2962:2986   */\n      tag_165\n      jump\t// in\n    tag_164:\n        /* \"#utility.yul\":2957:2960   */\n      dup3\n        /* \"#utility.yul\":2950:2987   */\n      mstore\n        /* \"#utility.yul\":2875:2993   */\n      pop\n      pop\n      jump\t// out\n        /* \"#utility.yul\":2999:3108   */\n    tag_166:\n        /* \"#utility.yul\":3080:3101   */\n      tag_168\n        /* \"#utility.yul\":3095:3100   */\n      dup2\n        /* \"#utility.yul\":3080:3101   */\n      tag_169\n      jump\t// in\n    tag_168:\n        /* \"#utility.yul\":3075:3078   */\n      dup3\n        /* \"#utility.yul\":3068:3102   */\n      mstore\n        /* \"#utility.yul\":2999:3108   */\n      pop\n      pop\n      jump\t// out\n        /* \"#utility.yul\":3114:3478   */\n    tag_170:\n        /* \"#utility.yul\":3202:3205   */\n      0x00\n        /* \"#utility.yul\":3230:3269   */\n      tag_172\n        /* \"#utility.yul\":3263:3268   */\n      dup3\n        /* \"#utility.yul\":3230:3269   */\n      tag_173\n      jump\t// in\n    tag_172:\n        /* \"#utility.yul\":3285:3356   */\n      tag_174\n        /* \"#utility.yul\":3349:3355   */\n      dup2\n        /* \"#utility.yul\":3344:3347   */\n      dup6\n        /* \"#utility.yul\":3285:3356   */\n      tag_175\n      jump\t// in\n    tag_174:\n        /* \"#utility.yul\":3278:3356   */\n      swap4\n      pop\n        /* \"#utility.yul\":3365:3417   */\n      tag_176\n        /* \"#utility.yul\":3410:3416   */\n      dup2\n        /* \"#utility.yul\":3405:3408   */\n      dup6\n        /* \"#utility.yul\":3398:3402   */\n      0x20\n        /* \"#utility.yul\":3391:3396   */\n      dup7\n        /* \"#utility.yul\":3387:3403   */\n      add\n        /* \"#utility.yul\":3365:3417   */\n      tag_177\n      jump\t// in\n    tag_176:\n        /* \"#utility.yul\":3442:3471   */\n      tag_178\n        /* \"#utility.yul\":3464:3470   */\n      dup2\n        /* \"#utility.yul\":3442:3471   */\n      tag_179\n      jump\t// in\n    tag_178:\n        /* \"#utility.yul\":3437:3440   */\n      dup5\n        /* \"#utility.yul\":3433:3472   */\n      add\n        /* \"#utility.yul\":3426:3472   */\n      swap2\n      pop\n        /* \"#utility.yul\":3206:3478   */\n      pop\n        /* \"#utility.yul\":3114:3478   */\n      swap3\n      swap2\n      pop\n      pop\n      jump\t// out\n        /* \"#utility.yul\":3484:3850   */\n    tag_180:\n        /* \"#utility.yul\":3626:3629   */\n      0x00\n        /* \"#utility.yul\":3647:3714   */\n      tag_182\n        /* \"#utility.yul\":3711:3713   */\n      0x22\n        /* \"#utility.yul\":3706:3709   */\n      dup4\n        /* \"#utility.yul\":3647:3714   */\n      tag_175\n      jump\t// in\n    tag_182:\n        /* \"#utility.yul\":3640:3714   */\n      swap2\n      pop\n        /* \"#utility.yul\":3723:3816   */\n      tag_183\n        /* \"#utility.yul\":3812:3815   */\n      dup3\n        /* \"#utility.yul\":3723:3816   */\n      tag_184\n      jump\t// in\n    tag_183:\n        /* \"#utility.yul\":3841:3843   */\n      0x40\n        /* \"#utility.yul\":3836:3839   */\n      dup3\n        /* \"#utility.yul\":3832:3844   */\n      add\n        /* \"#utility.yul\":3825:3844   */\n      swap1\n      pop\n        /* \"#utility.yul\":3484:3850   */\n      swap2\n      swap1\n      pop\n      jump\t// out\n        /* \"#utility.yul\":3856:3974   */\n    tag_185:\n        /* \"#utility.yul\":3943:3967   */\n      tag_187\n        /* \"#utility.yul\":3961:3966   */\n      dup2\n        /* \"#utility.yul\":3943:3967   */\n      tag_188\n      jump\t// in\n    tag_187:\n        /* \"#utility.yul\":3938:3941   */\n      dup3\n        /* \"#utility.yul\":3931:3968   */\n      mstore\n        /* \"#utility.yul\":3856:3974   */\n      pop\n      pop\n      jump\t// out\n        /* \"#utility.yul\":3980:4202   */\n    tag_34:\n        /* \"#utility.yul\":4073:4077   */\n      0x00\n        /* \"#utility.yul\":4111:4113   */\n      0x20\n        /* \"#utility.yul\":4100:4109   */\n      dup3\n        /* \"#utility.yul\":4096:4114   */\n      add\n        /* \"#utility.yul\":4088:4114   */\n      swap1\n      pop\n        /* \"#utility.yul\":4124:4195   */\n      tag_190\n        /* \"#utility.yul\":4192:4193   */\n      0x00\n        /* \"#utility.yul\":4181:4190   */\n      dup4\n        /* \"#utility.yul\":4177:4194   */\n      add\n        /* \"#utility.yul\":4168:4174   */\n      dup5\n        /* \"#utility.yul\":4124:4195   */\n      tag_162\n      jump\t// in\n    tag_190:\n        /* \"#utility.yul\":3980:4202   */\n      swap3\n      swap2\n      pop\n      pop\n      jump\t// out\n        /* \"#utility.yul\":4208:4418   */\n    tag_25:\n        /* \"#utility.yul\":4295:4299   */\n      0x00\n        /* \"#utility.yul\":4333:4335   */\n      0x20\n        /* \"#utility.yul\":4322:4331   */\n      dup3\n        /* \"#utility.yul\":4318:4336   */\n      add\n        /* \"#utility.yul\":4310:4336   */\n      swap1\n      pop\n        /* \"#utility.yul\":4346:4411   */\n      tag_192\n        /* \"#utility.yul\":4408:4409   */\n      0x00\n        /* \"#utility.yul\":4397:4406   */\n      dup4\n        /* \"#utility.yul\":4393:4410   */\n      add\n        /* \"#utility.yul\":4384:4390   */\n      dup5\n        /* \"#utility.yul\":4346:4411   */\n      tag_166\n      jump\t// in\n    tag_192:\n        /* \"#utility.yul\":4208:4418   */\n      swap3\n      swap2\n      pop\n      pop\n      jump\t// out\n        /* \"#utility.yul\":4424:5199   */\n    tag_40:\n        /* \"#utility.yul\":4659:4663   */\n      0x00\n        /* \"#utility.yul\":4697:4700   */\n      0xa0\n        /* \"#utility.yul\":4686:4695   */\n      dup3\n        /* \"#utility.yul\":4682:4701   */\n      add\n        /* \"#utility.yul\":4674:4701   */\n      swap1\n      pop\n        /* \"#utility.yul\":4747:4756   */\n      dup2\n        /* \"#utility.yul\":4741:4745   */\n      dup2\n        /* \"#utility.yul\":4737:4757   */\n      sub\n        /* \"#utility.yul\":4733:4734   */\n      0x00\n        /* \"#utility.yul\":4722:4731   */\n      dup4\n        /* \"#utility.yul\":4718:4735   */\n      add\n        /* \"#utility.yul\":4711:4758   */\n      mstore\n        /* \"#utility.yul\":4775:4853   */\n      tag_194\n        /* \"#utility.yul\":4848:4852   */\n      dup2\n        /* \"#utility.yul\":4839:4845   */\n      dup9\n        /* \"#utility.yul\":4775:4853   */\n      tag_170\n      jump\t// in\n    tag_194:\n        /* \"#utility.yul\":4767:4853   */\n      swap1\n      pop\n        /* \"#utility.yul\":4863:4935   */\n      tag_195\n        /* \"#utility.yul\":4931:4933   */\n      0x20\n        /* \"#utility.yul\":4920:4929   */\n      dup4\n        /* \"#utility.yul\":4916:4934   */\n      add\n        /* \"#utility.yul\":4907:4913   */\n      dup8\n        /* \"#utility.yul\":4863:4935   */\n      tag_185\n      jump\t// in\n    tag_195:\n        /* \"#utility.yul\":4945:5033   */\n      tag_196\n        /* \"#utility.yul\":5029:5031   */\n      0x40\n        /* \"#utility.yul\":5018:5027   */\n      dup4\n        /* \"#utility.yul\":5014:5032   */\n      add\n        /* \"#utility.yul\":5005:5011   */\n      dup7\n        /* \"#utility.yul\":4945:5033   */\n      tag_158\n      jump\t// in\n    tag_196:\n        /* \"#utility.yul\":5043:5109   */\n      tag_197\n        /* \"#utility.yul\":5105:5107   */\n      0x60\n        /* \"#utility.yul\":5094:5103   */\n      dup4\n        /* \"#utility.yul\":5090:5108   */\n      add\n        /* \"#utility.yul\":5081:5087   */\n      dup6\n        /* \"#utility.yul\":5043:5109   */\n      tag_166\n      jump\t// in\n    tag_197:\n        /* \"#utility.yul\":5119:5192   */\n      tag_198\n        /* \"#utility.yul\":5187:5190   */\n      0x80\n        /* \"#utility.yul\":5176:5185   */\n      dup4\n        /* \"#utility.yul\":5172:5191   */\n      add\n        /* \"#utility.yul\":5163:5169   */\n      dup5\n        /* \"#utility.yul\":5119:5192   */\n      tag_185\n      jump\t// in\n    tag_198:\n        /* \"#utility.yul\":4424:5199   */\n      swap7\n      swap6\n      pop\n      pop\n      pop\n      pop\n      pop\n      pop\n      jump\t// out\n        /* \"#utility.yul\":5205:5624   */\n    tag_93:\n        /* \"#utility.yul\":5371:5375   */\n      0x00\n        /* \"#utility.yul\":5409:5411   */\n      0x20\n        /* \"#utility.yul\":5398:5407   */\n      dup3\n        /* \"#utility.yul\":5394:5412   */\n      add\n        /* \"#utility.yul\":5386:5412   */\n      swap1\n      pop\n        /* \"#utility.yul\":5458:5467   */\n      dup2\n        /* \"#utility.yul\":5452:5456   */\n      dup2\n        /* \"#utility.yul\":5448:5468   */\n      sub\n        /* \"#utility.yul\":5444:5445   */\n      0x00\n        /* \"#utility.yul\":5433:5442   */\n      dup4\n        /* \"#utility.yul\":5429:5446   */\n      add\n        /* \"#utility.yul\":5422:5469   */\n      mstore\n        /* \"#utility.yul\":5486:5617   */\n      tag_200\n        /* \"#utility.yul\":5612:5616   */\n      dup2\n        /* \"#utility.yul\":5486:5617   */\n      tag_180\n      jump\t// in\n    tag_200:\n        /* \"#utility.yul\":5478:5617   */\n      swap1\n      pop\n        /* \"#utility.yul\":5205:5624   */\n      swap2\n      swap1\n      pop\n      jump\t// out\n        /* \"#utility.yul\":5630:5852   */\n    tag_50:\n        /* \"#utility.yul\":5723:5727   */\n      0x00\n        /* \"#utility.yul\":5761:5763   */\n      0x20\n        /* \"#utility.yul\":5750:5759   */\n      dup3\n        /* \"#utility.yul\":5746:5764   */\n      add\n        /* \"#utility.yul\":5738:5764   */\n      swap1\n      pop\n        /* \"#utility.yul\":5774:5845   */\n      tag_202\n        /* \"#utility.yul\":5842:5843   */\n      0x00\n        /* \"#utility.yul\":5831:5840   */\n      dup4\n        /* \"#utility.yul\":5827:5844   */\n      add\n        /* \"#utility.yul\":5818:5824   */\n      dup5\n        /* \"#utility.yul\":5774:5845   */\n      tag_185\n      jump\t// in\n    tag_202:\n        /* \"#utility.yul\":5630:5852   */\n      swap3\n      swap2\n      pop\n      pop\n      jump\t// out\n        /* \"#utility.yul\":5858:6522   */\n    tag_55:\n        /* \"#utility.yul\":6063:6067   */\n      0x00\n        /* \"#utility.yul\":6101:6104   */\n      0xa0\n        /* \"#utility.yul\":6090:6099   */\n      dup3\n        /* \"#utility.yul\":6086:6105   */\n      add\n        /* \"#utility.yul\":6078:6105   */\n      swap1\n      pop\n        /* \"#utility.yul\":6115:6186   */\n      tag_204\n        /* \"#utility.yul\":6183:6184   */\n      0x00\n        /* \"#utility.yul\":6172:6181   */\n      dup4\n        /* \"#utility.yul\":6168:6185   */\n      add\n        /* \"#utility.yul\":6159:6165   */\n      dup9\n        /* \"#utility.yul\":6115:6186   */\n      tag_185\n      jump\t// in\n    tag_204:\n        /* \"#utility.yul\":6196:6268   */\n      tag_205\n        /* \"#utility.yul\":6264:6266   */\n      0x20\n        /* \"#utility.yul\":6253:6262   */\n      dup4\n        /* \"#utility.yul\":6249:6267   */\n      add\n        /* \"#utility.yul\":6240:6246   */\n      dup8\n        /* \"#utility.yul\":6196:6268   */\n      tag_185\n      jump\t// in\n    tag_205:\n        /* \"#utility.yul\":6278:6350   */\n      tag_206\n        /* \"#utility.yul\":6346:6348   */\n      0x40\n        /* \"#utility.yul\":6335:6344   */\n      dup4\n        /* \"#utility.yul\":6331:6349   */\n      add\n        /* \"#utility.yul\":6322:6328   */\n      dup7\n        /* \"#utility.yul\":6278:6350   */\n      tag_185\n      jump\t// in\n    tag_206:\n        /* \"#utility.yul\":6360:6432   */\n      tag_207\n        /* \"#utility.yul\":6428:6430   */\n      0x60\n        /* \"#utility.yul\":6417:6426   */\n      dup4\n        /* \"#utility.yul\":6413:6431   */\n      add\n        /* \"#utility.yul\":6404:6410   */\n      dup6\n        /* \"#utility.yul\":6360:6432   */\n      tag_185\n      jump\t// in\n    tag_207:\n        /* \"#utility.yul\":6442:6515   */\n      tag_208\n        /* \"#utility.yul\":6510:6513   */\n      0x80\n        /* \"#utility.yul\":6499:6508   */\n      dup4\n        /* \"#utility.yul\":6495:6514   */\n      add\n        /* \"#utility.yul\":6486:6492   */\n      dup5\n        /* \"#utility.yul\":6442:6515   */\n      tag_162\n      jump\t// in\n    tag_208:\n        /* \"#utility.yul\":5858:6522   */\n      swap7\n      swap6\n      pop\n      pop\n      pop\n      pop\n      pop\n      pop\n      jump\t// out\n        /* \"#utility.yul\":6528:6657   */\n    tag_116:\n        /* \"#utility.yul\":6562:6568   */\n      0x00\n        /* \"#utility.yul\":6589:6609   */\n      tag_210\n      tag_211\n      jump\t// in\n    tag_210:\n        /* \"#utility.yul\":6579:6609   */\n      swap1\n      pop\n        /* \"#utility.yul\":6618:6651   */\n      tag_212\n        /* \"#utility.yul\":6646:6650   */\n      dup3\n        /* \"#utility.yul\":6638:6644   */\n      dup3\n        /* \"#utility.yul\":6618:6651   */\n      tag_213\n      jump\t// in\n    tag_212:\n        /* \"#utility.yul\":6528:6657   */\n      swap2\n      swap1\n      pop\n      jump\t// out\n        /* \"#utility.yul\":6663:6738   */\n    tag_211:\n        /* \"#utility.yul\":6696:6702   */\n      0x00\n        /* \"#utility.yul\":6729:6731   */\n      0x40\n        /* \"#utility.yul\":6723:6732   */\n      mload\n        /* \"#utility.yul\":6713:6732   */\n      swap1\n      pop\n        /* \"#utility.yul\":6663:6738   */\n      swap1\n      jump\t// out\n        /* \"#utility.yul\":6744:7052   */\n    tag_115:\n        /* \"#utility.yul\":6806:6810   */\n      0x00\n        /* \"#utility.yul\":6896:6914   */\n      0xffffffffffffffff\n        /* \"#utility.yul\":6888:6894   */\n      dup3\n        /* \"#utility.yul\":6885:6915   */\n      gt\n        /* \"#utility.yul\":6882:6938   */\n      iszero\n      tag_216\n      jumpi\n        /* \"#utility.yul\":6918:6936   */\n      tag_217\n      tag_218\n      jump\t// in\n    tag_217:\n        /* \"#utility.yul\":6882:6938   */\n    tag_216:\n        /* \"#utility.yul\":6956:6985   */\n      tag_219\n        /* \"#utility.yul\":6978:6984   */\n      dup3\n        /* \"#utility.yul\":6956:6985   */\n      tag_179\n      jump\t// in\n    tag_219:\n        /* \"#utility.yul\":6948:6985   */\n      swap1\n      pop\n        /* \"#utility.yul\":7040:7044   */\n      0x20\n        /* \"#utility.yul\":7034:7038   */\n      dup2\n        /* \"#utility.yul\":7030:7045   */\n      add\n        /* \"#utility.yul\":7022:7045   */\n      swap1\n      pop\n        /* \"#utility.yul\":6744:7052   */\n      swap2\n      swap1\n      pop\n      jump\t// out\n        /* \"#utility.yul\":7058:7157   */\n    tag_173:\n        /* \"#utility.yul\":7110:7116   */\n      0x00\n        /* \"#utility.yul\":7144:7149   */\n      dup2\n        /* \"#utility.yul\":7138:7150   */\n      mload\n        /* \"#utility.yul\":7128:7150   */\n      swap1\n      pop\n        /* \"#utility.yul\":7058:7157   */\n      swap2\n      swap1\n      pop\n      jump\t// out\n        /* \"#utility.yul\":7163:7332   */\n    tag_175:\n        /* \"#utility.yul\":7247:7258   */\n      0x00\n        /* \"#utility.yul\":7281:7287   */\n      dup3\n        /* \"#utility.yul\":7276:7279   */\n      dup3\n        /* \"#utility.yul\":7269:7288   */\n      mstore\n        /* \"#utility.yul\":7321:7325   */\n      0x20\n        /* \"#utility.yul\":7316:7319   */\n      dup3\n        /* \"#utility.yul\":7312:7326   */\n      add\n        /* \"#utility.yul\":7297:7326   */\n      swap1\n      pop\n        /* \"#utility.yul\":7163:7332   */\n      swap3\n      swap2\n      pop\n      pop\n      jump\t// out\n        /* \"#utility.yul\":7338:7523   */\n    tag_70:\n        /* \"#utility.yul\":7378:7379   */\n      0x00\n        /* \"#utility.yul\":7395:7415   */\n      tag_223\n        /* \"#utility.yul\":7413:7414   */\n      dup3\n        /* \"#utility.yul\":7395:7415   */\n      tag_188\n      jump\t// in\n    tag_223:\n        /* \"#utility.yul\":7390:7415   */\n      swap2\n      pop\n        /* \"#utility.yul\":7429:7449   */\n      tag_224\n        /* \"#utility.yul\":7447:7448   */\n      dup4\n        /* \"#utility.yul\":7429:7449   */\n      tag_188\n      jump\t// in\n    tag_224:\n        /* \"#utility.yul\":7424:7449   */\n      swap3\n      pop\n        /* \"#utility.yul\":7468:7469   */\n      dup3\n        /* \"#utility.yul\":7458:7493   */\n      tag_225\n      jumpi\n        /* \"#utility.yul\":7473:7491   */\n      tag_226\n      tag_227\n      jump\t// in\n    tag_226:\n        /* \"#utility.yul\":7458:7493   */\n    tag_225:\n        /* \"#utility.yul\":7515:7516   */\n      dup3\n        /* \"#utility.yul\":7512:7513   */\n      dup3\n        /* \"#utility.yul\":7508:7517   */\n      div\n        /* \"#utility.yul\":7503:7517   */\n      swap1\n      pop\n        /* \"#utility.yul\":7338:7523   */\n      swap3\n      swap2\n      pop\n      pop\n      jump\t// out\n        /* \"#utility.yul\":7529:7625   */\n    tag_165:\n        /* \"#utility.yul\":7566:7573   */\n      0x00\n        /* \"#utility.yul\":7595:7619   */\n      tag_229\n        /* \"#utility.yul\":7613:7618   */\n      dup3\n        /* \"#utility.yul\":7595:7619   */\n      tag_230\n      jump\t// in\n    tag_229:\n        /* \"#utility.yul\":7584:7619   */\n      swap1\n      pop\n        /* \"#utility.yul\":7529:7625   */\n      swap2\n      swap1\n      pop\n      jump\t// out\n        /* \"#utility.yul\":7631:7735   */\n    tag_161:\n        /* \"#utility.yul\":7676:7683   */\n      0x00\n        /* \"#utility.yul\":7705:7729   */\n      tag_232\n        /* \"#utility.yul\":7723:7728   */\n      dup3\n        /* \"#utility.yul\":7705:7729   */\n      tag_230\n      jump\t// in\n    tag_232:\n        /* \"#utility.yul\":7694:7729   */\n      swap1\n      pop\n        /* \"#utility.yul\":7631:7735   */\n      swap2\n      swap1\n      pop\n      jump\t// out\n        /* \"#utility.yul\":7741:7831   */\n    tag_169:\n        /* \"#utility.yul\":7775:7782   */\n      0x00\n        /* \"#utility.yul\":7818:7823   */\n      dup2\n        /* \"#utility.yul\":7811:7824   */\n      iszero\n        /* \"#utility.yul\":7804:7825   */\n      iszero\n        /* \"#utility.yul\":7793:7825   */\n      swap1\n      pop\n        /* \"#utility.yul\":7741:7831   */\n      swap2\n      swap1\n      pop\n      jump\t// out\n        /* \"#utility.yul\":7837:7963   */\n    tag_230:\n        /* \"#utility.yul\":7874:7881   */\n      0x00\n        /* \"#utility.yul\":7914:7956   */\n      0xffffffffffffffffffffffffffffffffffffffff\n        /* \"#utility.yul\":7907:7912   */\n      dup3\n        /* \"#utility.yul\":7903:7957   */\n      and\n        /* \"#utility.yul\":7892:7957   */\n      swap1\n      pop\n        /* \"#utility.yul\":7837:7963   */\n      swap2\n      swap1\n      pop\n      jump\t// out\n        /* \"#utility.yul\":7969:8046   */\n    tag_188:\n        /* \"#utility.yul\":8006:8013   */\n      0x00\n        /* \"#utility.yul\":8035:8040   */\n      dup2\n        /* \"#utility.yul\":8024:8040   */\n      swap1\n      pop\n        /* \"#utility.yul\":7969:8046   */\n      swap2\n      swap1\n      pop\n      jump\t// out\n        /* \"#utility.yul\":8052:8206   */\n    tag_121:\n        /* \"#utility.yul\":8136:8142   */\n      dup3\n        /* \"#utility.yul\":8131:8134   */\n      dup2\n        /* \"#utility.yul\":8126:8129   */\n      dup4\n        /* \"#utility.yul\":8113:8143   */\n      calldatacopy\n        /* \"#utility.yul\":8198:8199   */\n      0x00\n        /* \"#utility.yul\":8189:8195   */\n      dup4\n        /* \"#utility.yul\":8184:8187   */\n      dup4\n        /* \"#utility.yul\":8180:8196   */\n      add\n        /* \"#utility.yul\":8173:8200   */\n      mstore\n        /* \"#utility.yul\":8052:8206   */\n      pop\n      pop\n      pop\n      jump\t// out\n        /* \"#utility.yul\":8212:8519   */\n    tag_177:\n        /* \"#utility.yul\":8280:8281   */\n      0x00\n        /* \"#utility.yul\":8290:8403   */\n    tag_238:\n        /* \"#utility.yul\":8304:8310   */\n      dup4\n        /* \"#utility.yul\":8301:8302   */\n      dup2\n        /* \"#utility.yul\":8298:8311   */\n      lt\n        /* \"#utility.yul\":8290:8403   */\n      iszero\n      tag_240\n      jumpi\n        /* \"#utility.yul\":8389:8390   */\n      dup1\n        /* \"#utility.yul\":8384:8387   */\n      dup3\n        /* \"#utility.yul\":8380:8391   */\n      add\n        /* \"#utility.yul\":8374:8392   */\n      mload\n        /* \"#utility.yul\":8370:8371   */\n      dup2\n        /* \"#utility.yul\":8365:8368   */\n      dup5\n        /* \"#utility.yul\":8361:8372   */\n      add\n        /* \"#utility.yul\":8354:8393   */\n      mstore\n        /* \"#utility.yul\":8326:8328   */\n      0x20\n        /* \"#utility.yul\":8323:8324   */\n      dup2\n        /* \"#utility.yul\":8319:8329   */\n      add\n        /* \"#utility.yul\":8314:8329   */\n      swap1\n      pop\n        /* \"#utility.yul\":8290:8403   */\n      jump(tag_238)\n    tag_240:\n        /* \"#utility.yul\":8421:8427   */\n      dup4\n        /* \"#utility.yul\":8418:8419   */\n      dup2\n        /* \"#utility.yul\":8415:8428   */\n      gt\n        /* \"#utility.yul\":8412:8513   */\n      iszero\n      tag_241\n      jumpi\n        /* \"#utility.yul\":8501:8502   */\n      0x00\n        /* \"#utility.yul\":8492:8498   */\n      dup5\n        /* \"#utility.yul\":8487:8490   */\n      dup5\n        /* \"#utility.yul\":8483:8499   */\n      add\n        /* \"#utility.yul\":8476:8503   */\n      mstore\n        /* \"#utility.yul\":8412:8513   */\n    tag_241:\n        /* \"#utility.yul\":8261:8519   */\n      pop\n        /* \"#utility.yul\":8212:8519   */\n      pop\n      pop\n      pop\n      jump\t// out\n        /* \"#utility.yul\":8525:8845   */\n    tag_77:\n        /* \"#utility.yul\":8569:8575   */\n      0x00\n        /* \"#utility.yul\":8606:8607   */\n      0x02\n        /* \"#utility.yul\":8600:8604   */\n      dup3\n        /* \"#utility.yul\":8596:8608   */\n      div\n        /* \"#utility.yul\":8586:8608   */\n      swap1\n      pop\n        /* \"#utility.yul\":8653:8654   */\n      0x01\n        /* \"#utility.yul\":8647:8651   */\n      dup3\n        /* \"#utility.yul\":8643:8655   */\n      and\n        /* \"#utility.yul\":8674:8692   */\n      dup1\n        /* \"#utility.yul\":8664:8745   */\n      tag_243\n      jumpi\n        /* \"#utility.yul\":8730:8734   */\n      0x7f\n        /* \"#utility.yul\":8722:8728   */\n      dup3\n        /* \"#utility.yul\":8718:8735   */\n      and\n        /* \"#utility.yul\":8708:8735   */\n      swap2\n      pop\n        /* \"#utility.yul\":8664:8745   */\n    tag_243:\n        /* \"#utility.yul\":8792:8794   */\n      0x20\n        /* \"#utility.yul\":8784:8790   */\n      dup3\n        /* \"#utility.yul\":8781:8795   */\n      lt\n        /* \"#utility.yul\":8761:8779   */\n      dup2\n        /* \"#utility.yul\":8758:8796   */\n      eq\n        /* \"#utility.yul\":8755:8839   */\n      iszero\n      tag_244\n      jumpi\n        /* \"#utility.yul\":8811:8829   */\n      tag_245\n      tag_246\n      jump\t// in\n    tag_245:\n        /* \"#utility.yul\":8755:8839   */\n    tag_244:\n        /* \"#utility.yul\":8576:8845   */\n      pop\n        /* \"#utility.yul\":8525:8845   */\n      swap2\n      swap1\n      pop\n      jump\t// out\n        /* \"#utility.yul\":8851:9132   */\n    tag_213:\n        /* \"#utility.yul\":8934:8961   */\n      tag_248\n        /* \"#utility.yul\":8956:8960   */\n      dup3\n        /* \"#utility.yul\":8934:8961   */\n      tag_179\n      jump\t// in\n    tag_248:\n        /* \"#utility.yul\":8926:8932   */\n      dup2\n        /* \"#utility.yul\":8922:8962   */\n      add\n        /* \"#utility.yul\":9064:9070   */\n      dup2\n        /* \"#utility.yul\":9052:9062   */\n      dup2\n        /* \"#utility.yul\":9049:9071   */\n      lt\n        /* \"#utility.yul\":9028:9046   */\n      0xffffffffffffffff\n        /* \"#utility.yul\":9016:9026   */\n      dup3\n        /* \"#utility.yul\":9013:9047   */\n      gt\n        /* \"#utility.yul\":9010:9072   */\n      or\n        /* \"#utility.yul\":9007:9095   */\n      iszero\n      tag_249\n      jumpi\n        /* \"#utility.yul\":9075:9093   */\n      tag_250\n      tag_218\n      jump\t// in\n    tag_250:\n        /* \"#utility.yul\":9007:9095   */\n    tag_249:\n        /* \"#utility.yul\":9115:9125   */\n      dup1\n        /* \"#utility.yul\":9111:9113   */\n      0x40\n        /* \"#utility.yul\":9104:9126   */\n      mstore\n        /* \"#utility.yul\":8894:9132   */\n      pop\n        /* \"#utility.yul\":8851:9132   */\n      pop\n      pop\n      jump\t// out\n        /* \"#utility.yul\":9138:9371   */\n    tag_86:\n        /* \"#utility.yul\":9177:9180   */\n      0x00\n        /* \"#utility.yul\":9200:9224   */\n      tag_252\n        /* \"#utility.yul\":9218:9223   */\n      dup3\n        /* \"#utility.yul\":9200:9224   */\n      tag_188\n      jump\t// in\n    tag_252:\n        /* \"#utility.yul\":9191:9224   */\n      swap2\n      pop\n        /* \"#utility.yul\":9246:9312   */\n      0xffffffffffffffffffffffffffffffffffffffffffffffffffffffffffffffff\n        /* \"#utility.yul\":9239:9244   */\n      dup3\n        /* \"#utility.yul\":9236:9313   */\n      eq\n        /* \"#utility.yul\":9233:9336   */\n      iszero\n      tag_253\n      jumpi\n        /* \"#utility.yul\":9316:9334   */\n      tag_254\n      tag_255\n      jump\t// in\n    tag_254:\n        /* \"#utility.yul\":9233:9336   */\n    tag_253:\n        /* \"#utility.yul\":9363:9364   */\n      0x01\n        /* \"#utility.yul\":9356:9361   */\n      dup3\n        /* \"#utility.yul\":9352:9365   */\n      add\n        /* \"#utility.yul\":9345:9365   */\n      swap1\n      pop\n        /* \"#utility.yul\":9138:9371   */\n      swap2\n      swap1\n      pop\n      jump\t// out\n        /* \"#utility.yul\":9377:9557   */\n    tag_255:\n        /* \"#utility.yul\":9425:9502   */\n      0x4e487b7100000000000000000000000000000000000000000000000000000000\n        /* \"#utility.yul\":9422:9423   */\n      0x00\n        /* \"#utility.yul\":9415:9503   */\n      mstore\n        /* \"#utility.yul\":9522:9526   */\n      0x11\n        /* \"#utility.yul\":9519:9520   */\n      0x04\n        /* \"#utility.yul\":9512:9527   */\n      mstore\n        /* \"#utility.yul\":9546:9550   */\n      0x24\n        /* \"#utility.yul\":9543:9544   */\n      0x00\n        /* \"#utility.yul\":9536:9551   */\n      revert\n        /* \"#utility.yul\":9563:9743   */\n    tag_227:\n        /* \"#utility.yul\":9611:9688   */\n      0x4e487b7100000000000000000000000000000000000000000000000000000000\n        /* \"#utility.yul\":9608:9609   */\n      0x00\n        /* \"#utility.yul\":9601:9689   */\n      mstore\n        /* \"#utility.yul\":9708:9712   */\n      0x12\n        /* \"#utility.yul\":9705:9706   */\n      0x04\n        /* \"#utility.yul\":9698:9713   */\n      mstore\n        /* \"#utility.yul\":9732:9736   */\n      0x24\n        /* \"#utility.yul\":9729:9730   */\n      0x00\n        /* \"#utility.yul\":9722:9737   */\n      revert\n        /* \"#utility.yul\":9749:9929   */\n    tag_246:\n        /* \"#utility.yul\":9797:9874   */\n      0x4e487b7100000000000000000000000000000000000000000000000000000000\n        /* \"#utility.yul\":9794:9795   */\n      0x00\n        /* \"#utility.yul\":9787:9875   */\n      mstore\n        /* \"#utility.yul\":9894:9898   */\n      0x22\n        /* \"#utility.yul\":9891:9892   */\n      0x04\n        /* \"#utility.yul\":9884:9899   */\n      mstore\n        /* \"#utility.yul\":9918:9922   */\n      0x24\n        /* \"#utility.yul\":9915:9916   */\n      0x00\n        /* \"#utility.yul\":9908:9923   */\n      revert\n        /* \"#utility.yul\":9935:10115   */\n    tag_218:\n        /* \"#utility.yul\":9983:10060   */\n      0x4e487b7100000000000000000000000000000000000000000000000000000000\n        /* \"#utility.yul\":9980:9981   */\n      0x00\n        /* \"#utility.yul\":9973:10061   */\n      mstore\n        /* \"#utility.yul\":10080:10084   */\n      0x41\n        /* \"#utility.yul\":10077:10078   */\n      0x04\n        /* \"#utility.yul\":10070:10085   */\n      mstore\n        /* \"#utility.yul\":10104:10108   */\n      0x24\n        /* \"#utility.yul\":10101:10102   */\n      0x00\n        /* \"#utility.yul\":10094:10109   */\n      revert\n        /* \"#utility.yul\":10121:10238   */\n    tag_134:\n        /* \"#utility.yul\":10230:10231   */\n      0x00\n        /* \"#utility.yul\":10227:10228   */\n      dup1\n        /* \"#utility.yul\":10220:10232   */\n      revert\n        /* \"#utility.yul\":10244:10361   */\n    tag_119:\n        /* \"#utility.yul\":10353:10354   */\n      0x00\n        /* \"#utility.yul\":10350:10351   */\n      dup1\n        /* \"#utility.yul\":10343:10355   */\n      revert\n        /* \"#utility.yul\":10367:10484   */\n    tag_150:\n        /* \"#utility.yul\":10476:10477   */\n      0x00\n        /* \"#utility.yul\":10473:10474   */\n      dup1\n        /* \"#utility.yul\":10466:10478   */\n      revert\n        /* \"#utility.yul\":10490:10607   */\n    tag_143:\n        /* \"#utility.yul\":10599:10600   */\n      0x00\n        /* \"#utility.yul\":10596:10597   */\n      dup1\n        /* \"#utility.yul\":10589:10601   */\n      revert\n        /* \"#utility.yul\":10613:10715   */\n    tag_179:\n        /* \"#utility.yul\":10654:10660   */\n      0x00\n        /* \"#utility.yul\":10705:10707   */\n      0x1f\n        /* \"#utility.yul\":10701:10708   */\n      not\n        /* \"#utility.yul\":10696:10698   */\n      0x1f\n        /* \"#utility.yul\":10689:10694   */\n      dup4\n        /* \"#utility.yul\":10685:10699   */\n      add\n        /* \"#utility.yul\":10681:10709   */\n      and\n        /* \"#utility.yul\":10671:10709   */\n      swap1\n      pop\n        /* \"#utility.yul\":10613:10715   */\n      swap2\n      swap1\n      pop\n      jump\t// out\n        /* \"#utility.yul\":10721:10942   */\n    tag_184:\n        /* \"#utility.yul\":10861:10895   */\n      0x596f75206e65656420746f20636f6e7472696275746520746865206d696e696d\n        /* \"#utility.yul\":10857:10858   */\n      0x00\n        /* \"#utility.yul\":10849:10855   */\n      dup3\n        /* \"#utility.yul\":10845:10859   */\n      add\n        /* \"#utility.yul\":10838:10896   */\n      mstore\n        /* \"#utility.yul\":10930:10934   */\n      0x756d000000000000000000000000000000000000000000000000000000000000\n        /* \"#utility.yul\":10925:10927   */\n      0x20\n        /* \"#utility.yul\":10917:10923   */\n      dup3\n        /* \"#utility.yul\":10913:10928   */\n      add\n        /* \"#utility.yul\":10906:10935   */\n      mstore\n        /* \"#utility.yul\":10721:10942   */\n      pop\n      jump\t// out\n        /* \"#utility.yul\":10948:11070   */\n    tag_125:\n        /* \"#utility.yul\":11021:11045   */\n      tag_267\n        /* \"#utility.yul\":11039:11044   */\n      dup2\n        /* \"#utility.yul\":11021:11045   */\n      tag_165\n      jump\t// in\n    tag_267:\n        /* \"#utility.yul\":11014:11019   */\n      dup2\n        /* \"#utility.yul\":11011:11046   */\n      eq\n        /* \"#utility.yul\":11001:11064   */\n      tag_268\n      jumpi\n        /* \"#utility.yul\":11060:11061   */\n      0x00\n        /* \"#utility.yul\":11057:11058   */\n      dup1\n        /* \"#utility.yul\":11050:11062   */\n      revert\n        /* \"#utility.yul\":11001:11064   */\n    tag_268:\n        /* \"#utility.yul\":10948:11070   */\n      pop\n      jump\t// out\n        /* \"#utility.yul\":11076:11214   */\n    tag_129:\n        /* \"#utility.yul\":11157:11189   */\n      tag_270\n        /* \"#utility.yul\":11183:11188   */\n      dup2\n        /* \"#utility.yul\":11157:11189   */\n      tag_161\n      jump\t// in\n    tag_270:\n        /* \"#utility.yul\":11150:11155   */\n      dup2\n        /* \"#utility.yul\":11147:11190   */\n      eq\n        /* \"#utility.yul\":11137:11208   */\n      tag_271\n      jumpi\n        /* \"#utility.yul\":11204:11205   */\n      0x00\n        /* \"#utility.yul\":11201:11202   */\n      dup1\n        /* \"#utility.yul\":11194:11206   */\n      revert\n        /* \"#utility.yul\":11137:11208   */\n    tag_271:\n        /* \"#utility.yul\":11076:11214   */\n      pop\n      jump\t// out\n        /* \"#utility.yul\":11220:11342   */\n    tag_139:\n        /* \"#utility.yul\":11293:11317   */\n      tag_273\n        /* \"#utility.yul\":11311:11316   */\n      dup2\n        /* \"#utility.yul\":11293:11317   */\n      tag_188\n      jump\t// in\n    tag_273:\n        /* \"#utility.yul\":11286:11291   */\n      dup2\n        /* \"#utility.yul\":11283:11318   */\n      eq\n        /* \"#utility.yul\":11273:11336   */\n      tag_274\n      jumpi\n        /* \"#utility.yul\":11332:11333   */\n      0x00\n        /* \"#utility.yul\":11329:11330   */\n      dup1\n        /* \"#utility.yul\":11322:11334   */\n      revert\n        /* \"#utility.yul\":11273:11336   */\n    tag_274:\n        /* \"#utility.yul\":11220:11342   */\n      pop\n      jump\t// out\n\n    auxdata: 0xa2646970667358221220f001ed3f5735da6ae14f3664affea85c68cccdff23f4e4fef6206e265fa2232064736f6c63430008070033\n}\n",
    "bytecode": {
      "linkReferences": {},
      "object": "60806040523480156200001157600080fd5b5060405162001138380380620011388339818101604052810190620000379190620000b4565b806000806101000a81548173ffffffffffffffffffffffffffffffffffffffff021916908373ffffffffffffffffffffffffffffffffffffffff16021790555081600181905550505062000172565b60008151905062000097816200013e565b92915050565b600081519050620000ae8162000158565b92915050565b60008060408385031215620000ce57620000cd62000139565b5b6000620000de858286016200009d565b9250506020620000f18582860162000086565b9150509250929050565b600062000108826200010f565b9050919050565b600073ffffffffffffffffffffffffffffffffffffffff82169050919050565b6000819050919050565b600080fd5b6200014981620000fb565b81146200015557600080fd5b50565b62000163816200012f565b81146200016f57600080fd5b50565b610fb680620001826000396000f3fe60806040526004361061009c5760003560e01c80638a9cfd55116100645780638a9cfd551461019c578063937e09b1146101c5578063b16a867c146101f0578063d7bb99ba1461021f578063d7d1bbdb14610229578063ffbbfcb0146102525761009c565b806303441006146100a15780630a144391146100ca5780633209e9e614610107578063481c6a751461013057806381d12c581461015b575b600080fd5b3480156100ad57600080fd5b506100c860048036038101906100c39190610a3d565b61027d565b005b3480156100d657600080fd5b506100f160048036038101906100ec91906109a1565b6103b6565b6040516100fe9190610b1d565b60405180910390f35b34801561011357600080fd5b5061012e60048036038101906101299190610a3d565b6103d6565b005b34801561013c57600080fd5b506101456103e0565b6040516101529190610b02565b60405180910390f35b34801561016757600080fd5b50610182600480360381019061017d9190610a3d565b610404565b604051610193959493929190610b38565b60405180910390f35b3480156101a857600080fd5b506101c360048036038101906101be91906109ce565b6104ef565b005b3480156101d157600080fd5b506101da610606565b6040516101e79190610bb2565b60405180910390f35b3480156101fc57600080fd5b5061020561060c565b604051610216959493929190610bcd565b60405180910390f35b610227610650565b005b34801561023557600080fd5b50610250600480360381019061024b9190610a3d565b610707565b005b34801561025e57600080fd5b50610267610845565b6040516102749190610bb2565b60405180910390f35b60008054906101000a900473ffffffffffffffffffffffffffffffffffffffff1673ffffffffffffffffffffffffffffffffffffffff163373ffffffffffffffffffffffffffffffffffffffff16146102d557600080fd5b600060036000838152602001908152602001600020905060026005546102fb9190610c92565b81600301541161030a57600080fd5b8060020160149054906101000a900460ff161561032657600080fd5b8060020160009054906101000a900473ffffffffffffffffffffffffffffffffffffffff1673ffffffffffffffffffffffffffffffffffffffff166108fc82600101549081150290604051600060405180830381858888f19350505050158015610394573d6000803e3d6000fd5b5060018160020160146101000a81548160ff0219169083151502179055505050565b60026020528060005260406000206000915054906101000a900460ff1681565b8060018190555050565b60008054906101000a900473ffffffffffffffffffffffffffffffffffffffff1681565b600360205280600052604060002060009150905080600001805461042790610d5f565b80601f016020809104026020016040519081016040528092919081815260200182805461045390610d5f565b80156104a05780601f10610475576101008083540402835291602001916104a0565b820191906000526020600020905b81548152906001019060200180831161048357829003601f168201915b5050505050908060010154908060020160009054906101000a900473ffffffffffffffffffffffffffffffffffffffff16908060020160149054906101000a900460ff16908060030154905085565b60008054906101000a900473ffffffffffffffffffffffffffffffffffffffff1673ffffffffffffffffffffffffffffffffffffffff163373ffffffffffffffffffffffffffffffffffffffff161461054757600080fd5b6000600360006004600081548092919061056090610dc2565b91905055815260200190815260200160002090508381600001908051906020019061058c92919061084f565b50828160010181905550818160020160006101000a81548173ffffffffffffffffffffffffffffffffffffffff021916908373ffffffffffffffffffffffffffffffffffffffff16021790555060008160020160146101000a81548160ff0219169083151502179055506000816003018190555050505050565b60015481565b60008060008060004760015460045460055460008054906101000a900473ffffffffffffffffffffffffffffffffffffffff16945094509450945094509091929394565b600154341015610695576040517f08c379a000000000000000000000000000000000000000000000000000000000815260040161068c90610b92565b60405180910390fd5b6001600260003373ffffffffffffffffffffffffffffffffffffffff1673ffffffffffffffffffffffffffffffffffffffff16815260200190815260200160002060006101000a81548160ff0219169083151502179055506005600081548092919061070090610dc2565b9190505550565b6000600360008381526020019081526020016000209050600260003373ffffffffffffffffffffffffffffffffffffffff1673ffffffffffffffffffffffffffffffffffffffff16815260200190815260200160002060009054906101000a900460ff1661077457600080fd5b8060040160003373ffffffffffffffffffffffffffffffffffffffff1673ffffffffffffffffffffffffffffffffffffffff16815260200190815260200160002060009054906101000a900460ff16156107cd57600080fd5b60018160040160003373ffffffffffffffffffffffffffffffffffffffff1673ffffffffffffffffffffffffffffffffffffffff16815260200190815260200160002060006101000a81548160ff02191690831515021790555080600301600081548092919061083c90610dc2565b91905055505050565b6000600454905090565b82805461085b90610d5f565b90600052602060002090601f01602090048101928261087d57600085556108c4565b82601f1061089657805160ff19168380011785556108c4565b828001600101855582156108c4579182015b828111156108c35782518255916020019190600101906108a8565b5b5090506108d191906108d5565b5090565b5b808211156108ee5760008160009055506001016108d6565b5090565b600061090561090084610c45565b610c20565b90508281526020810184848401111561092157610920610ecc565b5b61092c848285610d1d565b509392505050565b60008135905061094381610f3b565b92915050565b60008135905061095881610f52565b92915050565b600082601f83011261097357610972610ec7565b5b81356109838482602086016108f2565b91505092915050565b60008135905061099b81610f69565b92915050565b6000602082840312156109b7576109b6610ed6565b5b60006109c584828501610934565b91505092915050565b6000806000606084860312156109e7576109e6610ed6565b5b600084013567ffffffffffffffff811115610a0557610a04610ed1565b5b610a118682870161095e565b9350506020610a228682870161098c565b9250506040610a3386828701610949565b9150509250925092565b600060208284031215610a5357610a52610ed6565b5b6000610a618482850161098c565b91505092915050565b610a7381610cd5565b82525050565b610a8281610cc3565b82525050565b610a9181610ce7565b82525050565b6000610aa282610c76565b610aac8185610c81565b9350610abc818560208601610d2c565b610ac581610edb565b840191505092915050565b6000610add602283610c81565b9150610ae882610eec565b604082019050919050565b610afc81610d13565b82525050565b6000602082019050610b176000830184610a79565b92915050565b6000602082019050610b326000830184610a88565b92915050565b600060a0820190508181036000830152610b528188610a97565b9050610b616020830187610af3565b610b6e6040830186610a6a565b610b7b6060830185610a88565b610b886080830184610af3565b9695505050505050565b60006020820190508181036000830152610bab81610ad0565b9050919050565b6000602082019050610bc76000830184610af3565b92915050565b600060a082019050610be26000830188610af3565b610bef6020830187610af3565b610bfc6040830186610af3565b610c096060830185610af3565b610c166080830184610a79565b9695505050505050565b6000610c2a610c3b565b9050610c368282610d91565b919050565b6000604051905090565b600067ffffffffffffffff821115610c6057610c5f610e98565b5b610c6982610edb565b9050602081019050919050565b600081519050919050565b600082825260208201905092915050565b6000610c9d82610d13565b9150610ca883610d13565b925082610cb857610cb7610e3a565b5b828204905092915050565b6000610cce82610cf3565b9050919050565b6000610ce082610cf3565b9050919050565b60008115159050919050565b600073ffffffffffffffffffffffffffffffffffffffff82169050919050565b6000819050919050565b82818337600083830152505050565b60005b83811015610d4a578082015181840152602081019050610d2f565b83811115610d59576000848401525b50505050565b60006002820490506001821680610d7757607f821691505b60208210811415610d8b57610d8a610e69565b5b50919050565b610d9a82610edb565b810181811067ffffffffffffffff82111715610db957610db8610e98565b5b80604052505050565b6000610dcd82610d13565b91507fffffffffffffffffffffffffffffffffffffffffffffffffffffffffffffffff821415610e0057610dff610e0b565b5b600182019050919050565b7f4e487b7100000000000000000000000000000000000000000000000000000000600052601160045260246000fd5b7f4e487b7100000000000000000000000000000000000000000000000000000000600052601260045260246000fd5b7f4e487b7100000000000000000000000000000000000000000000000000000000600052602260045260246000fd5b7f4e487b7100000000000000000000000000000000000000000000000000000000600052604160045260246000fd5b600080fd5b600080fd5b600080fd5b600080fd5b6000601f19601f8301169050919050565b7f596f75206e65656420746f20636f6e7472696275746520746865206d696e696d60008201527f756d000000000000000000000000000000000000000000000000000000000000602082015250565b610f4481610cc3565b8114610f4f57600080fd5b50565b610f5b81610cd5565b8114610f6657600080fd5b50565b610f7281610d13565b8114610f7d57600080fd5b5056fea2646970667358221220f001ed3f5735da6ae14f3664affea85c68cccdff23f4e4fef6206e265fa2232064736f6c63430008070033",
      "opcodes": "PUSH1 0x80 PUSH1 0x40 MSTORE CALLVALUE DUP1 ISZERO PUSH3 0x11 JUMPI PUSH1 0x0 DUP1 REVERT JUMPDEST POP PUSH1 0x40 MLOAD PUSH3 0x1138 CODESIZE SUB DUP1 PUSH3 0x1138 DUP4 CODECOPY DUP2 DUP2 ADD PUSH1 0x40 MSTORE DUP2 ADD SWAP1 PUSH3 0x37 SWAP2 SWAP1 PUSH3 0xB4 JUMP JUMPDEST DUP1 PUSH1 0x0 DUP1 PUSH2 0x100 EXP DUP2 SLOAD DUP2 PUSH20 0xFFFFFFFFFFFFFFFFFFFFFFFFFFFFFFFFFFFFFFFF MUL NOT AND SWAP1 DUP4 PUSH20 0xFFFFFFFFFFFFFFFFFFFFFFFFFFFFFFFFFFFFFFFF AND MUL OR SWAP1 SSTORE POP DUP2 PUSH1 0x1 DUP2 SWAP1 SSTORE POP POP POP PUSH3 0x172 JUMP JUMPDEST PUSH1 0x0 DUP2 MLOAD SWAP1 POP PUSH3 0x97 DUP2 PUSH3 0x13E JUMP JUMPDEST SWAP3 SWAP2 POP POP JUMP JUMPDEST PUSH1 0x0 DUP2 MLOAD SWAP1 POP PUSH3 0xAE DUP2 PUSH3 0x158 JUMP JUMPDEST SWAP3 SWAP2 POP POP JUMP JUMPDEST PUSH1 0x0 DUP1 PUSH1 0x40 DUP4 DUP6 SUB SLT ISZERO PUSH3 0xCE JUMPI PUSH3 0xCD PUSH3 0x139 JUMP JUMPDEST JUMPDEST PUSH1 0x0 PUSH3 0xDE DUP6 DUP3 DUP7 ADD PUSH3 0x9D JUMP JUMPDEST SWAP3 POP POP PUSH1 0x20 PUSH3 0xF1 DUP6 DUP3 DUP7 ADD PUSH3 0x86 JUMP JUMPDEST SWAP2 POP POP SWAP3 POP SWAP3 SWAP1 POP JUMP JUMPDEST PUSH1 0x0 PUSH3 0x108 DUP3 PUSH3 0x10F JUMP JUMPDEST SWAP1 POP SWAP2 SWAP1 POP JUMP JUMPDEST PUSH1 0x0 PUSH20 0xFFFFFFFFFFFFFFFFFFFFFFFFFFFFFFFFFFFFFFFF DUP3 AND SWAP1 POP SWAP2 SWAP1 POP JUMP JUMPDEST PUSH1 0x0 DUP2 SWAP1 POP SWAP2 SWAP1 POP JUMP JUMPDEST PUSH1 0x0 DUP1 REVERT JUMPDEST PUSH3 0x149 DUP2 PUSH3 0xFB JUMP JUMPDEST DUP2 EQ PUSH3 0x155 JUMPI PUSH1 0x0 DUP1 REVERT JUMPDEST POP JUMP JUMPDEST PUSH3 0x163 DUP2 PUSH3 0x12F JUMP JUMPDEST DUP2 EQ PUSH3 0x16F JUMPI PUSH1 0x0 DUP1 REVERT JUMPDEST POP JUMP JUMPDEST PUSH2 0xFB6 DUP1 PUSH3 0x182 PUSH1 0x0 CODECOPY PUSH1 0x0 RETURN INVALID PUSH1 0x80 PUSH1 0x40 MSTORE PUSH1 0x4 CALLDATASIZE LT PUSH2 0x9C JUMPI PUSH1 0x0 CALLDATALOAD PUSH1 0xE0 SHR DUP1 PUSH4 0x8A9CFD55 GT PUSH2 0x64 JUMPI DUP1 PUSH4 0x8A9CFD55 EQ PUSH2 0x19C JUMPI DUP1 PUSH4 0x937E09B1 EQ PUSH2 0x1C5 JUMPI DUP1 PUSH4 0xB16A867C EQ PUSH2 0x1F0 JUMPI DUP1 PUSH4 0xD7BB99BA EQ PUSH2 0x21F JUMPI DUP1 PUSH4 0xD7D1BBDB EQ PUSH2 0x229 JUMPI DUP1 PUSH4 0xFFBBFCB0 EQ PUSH2 0x252 JUMPI PUSH2 0x9C JUMP JUMPDEST DUP1 PUSH4 0x3441006 EQ PUSH2 0xA1 JUMPI DUP1 PUSH4 0xA144391 EQ PUSH2 0xCA JUMPI DUP1 PUSH4 0x3209E9E6 EQ PUSH2 0x107 JUMPI DUP1 PUSH4 0x481C6A75 EQ PUSH2 0x130 JUMPI DUP1 PUSH4 0x81D12C58 EQ PUSH2 0x15B JUMPI JUMPDEST PUSH1 0x0 DUP1 REVERT JUMPDEST CALLVALUE DUP1 ISZERO PUSH2 0xAD JUMPI PUSH1 0x0 DUP1 REVERT JUMPDEST POP PUSH2 0xC8 PUSH1 0x4 DUP1 CALLDATASIZE SUB DUP2 ADD SWAP1 PUSH2 0xC3 SWAP2 SWAP1 PUSH2 0xA3D JUMP JUMPDEST PUSH2 0x27D JUMP JUMPDEST STOP JUMPDEST CALLVALUE DUP1 ISZERO PUSH2 0xD6 JUMPI PUSH1 0x0 DUP1 REVERT JUMPDEST POP PUSH2 0xF1 PUSH1 0x4 DUP1 CALLDATASIZE SUB DUP2 ADD SWAP1 PUSH2 0xEC SWAP2 SWAP1 PUSH2 0x9A1 JUMP JUMPDEST PUSH2 0x3B6 JUMP JUMPDEST PUSH1 0x40 MLOAD PUSH2 0xFE SWAP2 SWAP1 PUSH2 0xB1D JUMP JUMPDEST PUSH1 0x40 MLOAD DUP1 SWAP2 SUB SWAP1 RETURN JUMPDEST CALLVALUE DUP1 ISZERO PUSH2 0x113 JUMPI PUSH1 0x0 DUP1 REVERT JUMPDEST POP PUSH2 0x12E PUSH1 0x4 DUP1 CALLDATASIZE SUB DUP2 ADD SWAP1 PUSH2 0x129 SWAP2 SWAP1 PUSH2 0xA3D JUMP JUMPDEST PUSH2 0x3D6 JUMP JUMPDEST STOP JUMPDEST CALLVALUE DUP1 ISZERO PUSH2 0x13C JUMPI PUSH1 0x0 DUP1 REVERT JUMPDEST POP PUSH2 0x145 PUSH2 0x3E0 JUMP JUMPDEST PUSH1 0x40 MLOAD PUSH2 0x152 SWAP2 SWAP1 PUSH2 0xB02 JUMP JUMPDEST PUSH1 0x40 MLOAD DUP1 SWAP2 SUB SWAP1 RETURN JUMPDEST CALLVALUE DUP1 ISZERO PUSH2 0x167 JUMPI PUSH1 0x0 DUP1 REVERT JUMPDEST POP PUSH2 0x182 PUSH1 0x4 DUP1 CALLDATASIZE SUB DUP2 ADD SWAP1 PUSH2 0x17D SWAP2 SWAP1 PUSH2 0xA3D JUMP JUMPDEST PUSH2 0x404 JUMP JUMPDEST PUSH1 0x40 MLOAD PUSH2 0x193 SWAP6 SWAP5 SWAP4 SWAP3 SWAP2 SWAP1 PUSH2 0xB38 JUMP JUMPDEST PUSH1 0x40 MLOAD DUP1 SWAP2 SUB SWAP1 RETURN JUMPDEST CALLVALUE DUP1 ISZERO PUSH2 0x1A8 JUMPI PUSH1 0x0 DUP1 REVERT JUMPDEST POP PUSH2 0x1C3 PUSH1 0x4 DUP1 CALLDATASIZE SUB DUP2 ADD SWAP1 PUSH2 0x1BE SWAP2 SWAP1 PUSH2 0x9CE JUMP JUMPDEST PUSH2 0x4EF JUMP JUMPDEST STOP JUMPDEST CALLVALUE DUP1 ISZERO PUSH2 0x1D1 JUMPI PUSH1 0x0 DUP1 REVERT JUMPDEST POP PUSH2 0x1DA PUSH2 0x606 JUMP JUMPDEST PUSH1 0x40 MLOAD PUSH2 0x1E7 SWAP2 SWAP1 PUSH2 0xBB2 JUMP JUMPDEST PUSH1 0x40 MLOAD DUP1 SWAP2 SUB SWAP1 RETURN JUMPDEST CALLVALUE DUP1 ISZERO PUSH2 0x1FC JUMPI PUSH1 0x0 DUP1 REVERT JUMPDEST POP PUSH2 0x205 PUSH2 0x60C JUMP JUMPDEST PUSH1 0x40 MLOAD PUSH2 0x216 SWAP6 SWAP5 SWAP4 SWAP3 SWAP2 SWAP1 PUSH2 0xBCD JUMP JUMPDEST PUSH1 0x40 MLOAD DUP1 SWAP2 SUB SWAP1 RETURN JUMPDEST PUSH2 0x227 PUSH2 0x650 JUMP JUMPDEST STOP JUMPDEST CALLVALUE DUP1 ISZERO PUSH2 0x235 JUMPI PUSH1 0x0 DUP1 REVERT JUMPDEST POP PUSH2 0x250 PUSH1 0x4 DUP1 CALLDATASIZE SUB DUP2 ADD SWAP1 PUSH2 0x24B SWAP2 SWAP1 PUSH2 0xA3D JUMP JUMPDEST PUSH2 0x707 JUMP JUMPDEST STOP JUMPDEST CALLVALUE DUP1 ISZERO PUSH2 0x25E JUMPI PUSH1 0x0 DUP1 REVERT JUMPDEST POP PUSH2 0x267 PUSH2 0x845 JUMP JUMPDEST PUSH1 0x40 MLOAD PUSH2 0x274 SWAP2 SWAP1 PUSH2 0xBB2 JUMP JUMPDEST PUSH1 0x40 MLOAD DUP1 SWAP2 SUB SWAP1 RETURN JUMPDEST PUSH1 0x0 DUP1 SLOAD SWAP1 PUSH2 0x100 EXP SWAP1 DIV PUSH20 0xFFFFFFFFFFFFFFFFFFFFFFFFFFFFFFFFFFFFFFFF AND PUSH20 0xFFFFFFFFFFFFFFFFFFFFFFFFFFFFFFFFFFFFFFFF AND CALLER PUSH20 0xFFFFFFFFFFFFFFFFFFFFFFFFFFFFFFFFFFFFFFFF AND EQ PUSH2 0x2D5 JUMPI PUSH1 0x0 DUP1 REVERT JUMPDEST PUSH1 0x0 PUSH1 0x3 PUSH1 0x0 DUP4 DUP2 MSTORE PUSH1 0x20 ADD SWAP1 DUP2 MSTORE PUSH1 0x20 ADD PUSH1 0x0 KECCAK256 SWAP1 POP PUSH1 0x2 PUSH1 0x5 SLOAD PUSH2 0x2FB SWAP2 SWAP1 PUSH2 0xC92 JUMP JUMPDEST DUP2 PUSH1 0x3 ADD SLOAD GT PUSH2 0x30A JUMPI PUSH1 0x0 DUP1 REVERT JUMPDEST DUP1 PUSH1 0x2 ADD PUSH1 0x14 SWAP1 SLOAD SWAP1 PUSH2 0x100 EXP SWAP1 DIV PUSH1 0xFF AND ISZERO PUSH2 0x326 JUMPI PUSH1 0x0 DUP1 REVERT JUMPDEST DUP1 PUSH1 0x2 ADD PUSH1 0x0 SWAP1 SLOAD SWAP1 PUSH2 0x100 EXP SWAP1 DIV PUSH20 0xFFFFFFFFFFFFFFFFFFFFFFFFFFFFFFFFFFFFFFFF AND PUSH20 0xFFFFFFFFFFFFFFFFFFFFFFFFFFFFFFFFFFFFFFFF AND PUSH2 0x8FC DUP3 PUSH1 0x1 ADD SLOAD SWAP1 DUP2 ISZERO MUL SWAP1 PUSH1 0x40 MLOAD PUSH1 0x0 PUSH1 0x40 MLOAD DUP1 DUP4 SUB DUP2 DUP6 DUP9 DUP9 CALL SWAP4 POP POP POP POP ISZERO DUP1 ISZERO PUSH2 0x394 JUMPI RETURNDATASIZE PUSH1 0x0 DUP1 RETURNDATACOPY RETURNDATASIZE PUSH1 0x0 REVERT JUMPDEST POP PUSH1 0x1 DUP2 PUSH1 0x2 ADD PUSH1 0x14 PUSH2 0x100 EXP DUP2 SLOAD DUP2 PUSH1 0xFF MUL NOT AND SWAP1 DUP4 ISZERO ISZERO MUL OR SWAP1 SSTORE POP POP POP JUMP JUMPDEST PUSH1 0x2 PUSH1 0x20 MSTORE DUP1 PUSH1 0x0 MSTORE PUSH1 0x40 PUSH1 0x0 KECCAK256 PUSH1 0x0 SWAP2 POP SLOAD SWAP1 PUSH2 0x100 EXP SWAP1 DIV PUSH1 0xFF AND DUP2 JUMP JUMPDEST DUP1 PUSH1 0x1 DUP2 SWAP1 SSTORE POP POP JUMP JUMPDEST PUSH1 0x0 DUP1 SLOAD SWAP1 PUSH2 0x100 EXP SWAP1 DIV PUSH20 0xFFFFFFFFFFFFFFFFFFFFFFFFFFFFFFFFFFFFFFFF AND DUP2 JUMP JUMPDEST PUSH1 0x3 PUSH1 0x20 MSTORE DUP1 PUSH1 0x0 MSTORE PUSH1 0x40 PUSH1 0x0 KECCAK256 PUSH1 0x0 SWAP2 POP SWAP1 POP DUP1 PUSH1 0x0 ADD DUP1 SLOAD PUSH2 0x427 SWAP1 PUSH2 0xD5F JUMP JUMPDEST DUP1 PUSH1 0x1F ADD PUSH1 0x20 DUP1 SWAP2 DIV MUL PUSH1 0x20 ADD PUSH1 0x40 MLOAD SWAP1 DUP2 ADD PUSH1 0x40 MSTORE DUP1 SWAP3 SWAP2 SWAP1 DUP2 DUP2 MSTORE PUSH1 0x20 ADD DUP3 DUP1 SLOAD PUSH2 0x453 SWAP1 PUSH2 0xD5F JUMP JUMPDEST DUP1 ISZERO PUSH2 0x4A0 JUMPI DUP1 PUSH1 0x1F LT PUSH2 0x475 JUMPI PUSH2 0x100 DUP1 DUP4 SLOAD DIV MUL DUP4 MSTORE SWAP2 PUSH1 0x20 ADD SWAP2 PUSH2 0x4A0 JUMP JUMPDEST DUP3 ADD SWAP2 SWAP1 PUSH1 0x0 MSTORE PUSH1 0x20 PUSH1 0x0 KECCAK256 SWAP1 JUMPDEST DUP2 SLOAD DUP2 MSTORE SWAP1 PUSH1 0x1 ADD SWAP1 PUSH1 0x20 ADD DUP1 DUP4 GT PUSH2 0x483 JUMPI DUP3 SWAP1 SUB PUSH1 0x1F AND DUP3 ADD SWAP2 JUMPDEST POP POP POP POP POP SWAP1 DUP1 PUSH1 0x1 ADD SLOAD SWAP1 DUP1 PUSH1 0x2 ADD PUSH1 0x0 SWAP1 SLOAD SWAP1 PUSH2 0x100 EXP SWAP1 DIV PUSH20 0xFFFFFFFFFFFFFFFFFFFFFFFFFFFFFFFFFFFFFFFF AND SWAP1 DUP1 PUSH1 0x2 ADD PUSH1 0x14 SWAP1 SLOAD SWAP1 PUSH2 0x100 EXP SWAP1 DIV PUSH1 0xFF AND SWAP1 DUP1 PUSH1 0x3 ADD SLOAD SWAP1 POP DUP6 JUMP JUMPDEST PUSH1 0x0 DUP1 SLOAD SWAP1 PUSH2 0x100 EXP SWAP1 DIV PUSH20 0xFFFFFFFFFFFFFFFFFFFFFFFFFFFFFFFFFFFFFFFF AND PUSH20 0xFFFFFFFFFFFFFFFFFFFFFFFFFFFFFFFFFFFFFFFF AND CALLER PUSH20 0xFFFFFFFFFFFFFFFFFFFFFFFFFFFFFFFFFFFFFFFF AND EQ PUSH2 0x547 JUMPI PUSH1 0x0 DUP1 REVERT JUMPDEST PUSH1 0x0 PUSH1 0x3 PUSH1 0x0 PUSH1 0x4 PUSH1 0x0 DUP2 SLOAD DUP1 SWAP3 SWAP2 SWAP1 PUSH2 0x560 SWAP1 PUSH2 0xDC2 JUMP JUMPDEST SWAP2 SWAP1 POP SSTORE DUP2 MSTORE PUSH1 0x20 ADD SWAP1 DUP2 MSTORE PUSH1 0x20 ADD PUSH1 0x0 KECCAK256 SWAP1 POP DUP4 DUP2 PUSH1 0x0 ADD SWAP1 DUP1 MLOAD SWAP1 PUSH1 0x20 ADD SWAP1 PUSH2 0x58C SWAP3 SWAP2 SWAP1 PUSH2 0x84F JUMP JUMPDEST POP DUP3 DUP2 PUSH1 0x1 ADD DUP2 SWAP1 SSTORE POP DUP2 DUP2 PUSH1 0x2 ADD PUSH1 0x0 PUSH2 0x100 EXP DUP2 SLOAD DUP2 PUSH20 0xFFFFFFFFFFFFFFFFFFFFFFFFFFFFFFFFFFFFFFFF MUL NOT AND SWAP1 DUP4 PUSH20 0xFFFFFFFFFFFFFFFFFFFFFFFFFFFFFFFFFFFFFFFF AND MUL OR SWAP1 SSTORE POP PUSH1 0x0 DUP2 PUSH1 0x2 ADD PUSH1 0x14 PUSH2 0x100 EXP DUP2 SLOAD DUP2 PUSH1 0xFF MUL NOT AND SWAP1 DUP4 ISZERO ISZERO MUL OR SWAP1 SSTORE POP PUSH1 0x0 DUP2 PUSH1 0x3 ADD DUP2 SWAP1 SSTORE POP POP POP POP POP JUMP JUMPDEST PUSH1 0x1 SLOAD DUP2 JUMP JUMPDEST PUSH1 0x0 DUP1 PUSH1 0x0 DUP1 PUSH1 0x0 SELFBALANCE PUSH1 0x1 SLOAD PUSH1 0x4 SLOAD PUSH1 0x5 SLOAD PUSH1 0x0 DUP1 SLOAD SWAP1 PUSH2 0x100 EXP SWAP1 DIV PUSH20 0xFFFFFFFFFFFFFFFFFFFFFFFFFFFFFFFFFFFFFFFF AND SWAP5 POP SWAP5 POP SWAP5 POP SWAP5 POP SWAP5 POP SWAP1 SWAP2 SWAP3 SWAP4 SWAP5 JUMP JUMPDEST PUSH1 0x1 SLOAD CALLVALUE LT ISZERO PUSH2 0x695 JUMPI PUSH1 0x40 MLOAD PUSH32 0x8C379A000000000000000000000000000000000000000000000000000000000 DUP2 MSTORE PUSH1 0x4 ADD PUSH2 0x68C SWAP1 PUSH2 0xB92 JUMP JUMPDEST PUSH1 0x40 MLOAD DUP1 SWAP2 SUB SWAP1 REVERT JUMPDEST PUSH1 0x1 PUSH1 0x2 PUSH1 0x0 CALLER PUSH20 0xFFFFFFFFFFFFFFFFFFFFFFFFFFFFFFFFFFFFFFFF AND PUSH20 0xFFFFFFFFFFFFFFFFFFFFFFFFFFFFFFFFFFFFFFFF AND DUP2 MSTORE PUSH1 0x20 ADD SWAP1 DUP2 MSTORE PUSH1 0x20 ADD PUSH1 0x0 KECCAK256 PUSH1 0x0 PUSH2 0x100 EXP DUP2 SLOAD DUP2 PUSH1 0xFF MUL NOT AND SWAP1 DUP4 ISZERO ISZERO MUL OR SWAP1 SSTORE POP PUSH1 0x5 PUSH1 0x0 DUP2 SLOAD DUP1 SWAP3 SWAP2 SWAP1 PUSH2 0x700 SWAP1 PUSH2 0xDC2 JUMP JUMPDEST SWAP2 SWAP1 POP SSTORE POP JUMP JUMPDEST PUSH1 0x0 PUSH1 0x3 PUSH1 0x0 DUP4 DUP2 MSTORE PUSH1 0x20 ADD SWAP1 DUP2 MSTORE PUSH1 0x20 ADD PUSH1 0x0 KECCAK256 SWAP1 POP PUSH1 0x2 PUSH1 0x0 CALLER PUSH20 0xFFFFFFFFFFFFFFFFFFFFFFFFFFFFFFFFFFFFFFFF AND PUSH20 0xFFFFFFFFFFFFFFFFFFFFFFFFFFFFFFFFFFFFFFFF AND DUP2 MSTORE PUSH1 0x20 ADD SWAP1 DUP2 MSTORE PUSH1 0x20 ADD PUSH1 0x0 KECCAK256 PUSH1 0x0 SWAP1 SLOAD SWAP1 PUSH2 0x100 EXP SWAP1 DIV PUSH1 0xFF AND PUSH2 0x774 JUMPI PUSH1 0x0 DUP1 REVERT JUMPDEST DUP1 PUSH1 0x4 ADD PUSH1 0x0 CALLER PUSH20 0xFFFFFFFFFFFFFFFFFFFFFFFFFFFFFFFFFFFFFFFF AND PUSH20 0xFFFFFFFFFFFFFFFFFFFFFFFFFFFFFFFFFFFFFFFF AND DUP2 MSTORE PUSH1 0x20 ADD SWAP1 DUP2 MSTORE PUSH1 0x20 ADD PUSH1 0x0 KECCAK256 PUSH1 0x0 SWAP1 SLOAD SWAP1 PUSH2 0x100 EXP SWAP1 DIV PUSH1 0xFF AND ISZERO PUSH2 0x7CD JUMPI PUSH1 0x0 DUP1 REVERT JUMPDEST PUSH1 0x1 DUP2 PUSH1 0x4 ADD PUSH1 0x0 CALLER PUSH20 0xFFFFFFFFFFFFFFFFFFFFFFFFFFFFFFFFFFFFFFFF AND PUSH20 0xFFFFFFFFFFFFFFFFFFFFFFFFFFFFFFFFFFFFFFFF AND DUP2 MSTORE PUSH1 0x20 ADD SWAP1 DUP2 MSTORE PUSH1 0x20 ADD PUSH1 0x0 KECCAK256 PUSH1 0x0 PUSH2 0x100 EXP DUP2 SLOAD DUP2 PUSH1 0xFF MUL NOT AND SWAP1 DUP4 ISZERO ISZERO MUL OR SWAP1 SSTORE POP DUP1 PUSH1 0x3 ADD PUSH1 0x0 DUP2 SLOAD DUP1 SWAP3 SWAP2 SWAP1 PUSH2 0x83C SWAP1 PUSH2 0xDC2 JUMP JUMPDEST SWAP2 SWAP1 POP SSTORE POP POP POP JUMP JUMPDEST PUSH1 0x0 PUSH1 0x4 SLOAD SWAP1 POP SWAP1 JUMP JUMPDEST DUP3 DUP1 SLOAD PUSH2 0x85B SWAP1 PUSH2 0xD5F JUMP JUMPDEST SWAP1 PUSH1 0x0 MSTORE PUSH1 0x20 PUSH1 0x0 KECCAK256 SWAP1 PUSH1 0x1F ADD PUSH1 0x20 SWAP1 DIV DUP2 ADD SWAP3 DUP3 PUSH2 0x87D JUMPI PUSH1 0x0 DUP6 SSTORE PUSH2 0x8C4 JUMP JUMPDEST DUP3 PUSH1 0x1F LT PUSH2 0x896 JUMPI DUP1 MLOAD PUSH1 0xFF NOT AND DUP4 DUP1 ADD OR DUP6 SSTORE PUSH2 0x8C4 JUMP JUMPDEST DUP3 DUP1 ADD PUSH1 0x1 ADD DUP6 SSTORE DUP3 ISZERO PUSH2 0x8C4 JUMPI SWAP2 DUP3 ADD JUMPDEST DUP3 DUP2 GT ISZERO PUSH2 0x8C3 JUMPI DUP3 MLOAD DUP3 SSTORE SWAP2 PUSH1 0x20 ADD SWAP2 SWAP1 PUSH1 0x1 ADD SWAP1 PUSH2 0x8A8 JUMP JUMPDEST JUMPDEST POP SWAP1 POP PUSH2 0x8D1 SWAP2 SWAP1 PUSH2 0x8D5 JUMP JUMPDEST POP SWAP1 JUMP JUMPDEST JUMPDEST DUP1 DUP3 GT ISZERO PUSH2 0x8EE JUMPI PUSH1 0x0 DUP2 PUSH1 0x0 SWAP1 SSTORE POP PUSH1 0x1 ADD PUSH2 0x8D6 JUMP JUMPDEST POP SWAP1 JUMP JUMPDEST PUSH1 0x0 PUSH2 0x905 PUSH2 0x900 DUP5 PUSH2 0xC45 JUMP JUMPDEST PUSH2 0xC20 JUMP JUMPDEST SWAP1 POP DUP3 DUP2 MSTORE PUSH1 0x20 DUP2 ADD DUP5 DUP5 DUP5 ADD GT ISZERO PUSH2 0x921 JUMPI PUSH2 0x920 PUSH2 0xECC JUMP JUMPDEST JUMPDEST PUSH2 0x92C DUP5 DUP3 DUP6 PUSH2 0xD1D JUMP JUMPDEST POP SWAP4 SWAP3 POP POP POP JUMP JUMPDEST PUSH1 0x0 DUP2 CALLDATALOAD SWAP1 POP PUSH2 0x943 DUP2 PUSH2 0xF3B JUMP JUMPDEST SWAP3 SWAP2 POP POP JUMP JUMPDEST PUSH1 0x0 DUP2 CALLDATALOAD SWAP1 POP PUSH2 0x958 DUP2 PUSH2 0xF52 JUMP JUMPDEST SWAP3 SWAP2 POP POP JUMP JUMPDEST PUSH1 0x0 DUP3 PUSH1 0x1F DUP4 ADD SLT PUSH2 0x973 JUMPI PUSH2 0x972 PUSH2 0xEC7 JUMP JUMPDEST JUMPDEST DUP2 CALLDATALOAD PUSH2 0x983 DUP5 DUP3 PUSH1 0x20 DUP7 ADD PUSH2 0x8F2 JUMP JUMPDEST SWAP2 POP POP SWAP3 SWAP2 POP POP JUMP JUMPDEST PUSH1 0x0 DUP2 CALLDATALOAD SWAP1 POP PUSH2 0x99B DUP2 PUSH2 0xF69 JUMP JUMPDEST SWAP3 SWAP2 POP POP JUMP JUMPDEST PUSH1 0x0 PUSH1 0x20 DUP3 DUP5 SUB SLT ISZERO PUSH2 0x9B7 JUMPI PUSH2 0x9B6 PUSH2 0xED6 JUMP JUMPDEST JUMPDEST PUSH1 0x0 PUSH2 0x9C5 DUP5 DUP3 DUP6 ADD PUSH2 0x934 JUMP JUMPDEST SWAP2 POP POP SWAP3 SWAP2 POP POP JUMP JUMPDEST PUSH1 0x0 DUP1 PUSH1 0x0 PUSH1 0x60 DUP5 DUP7 SUB SLT ISZERO PUSH2 0x9E7 JUMPI PUSH2 0x9E6 PUSH2 0xED6 JUMP JUMPDEST JUMPDEST PUSH1 0x0 DUP5 ADD CALLDATALOAD PUSH8 0xFFFFFFFFFFFFFFFF DUP2 GT ISZERO PUSH2 0xA05 JUMPI PUSH2 0xA04 PUSH2 0xED1 JUMP JUMPDEST JUMPDEST PUSH2 0xA11 DUP7 DUP3 DUP8 ADD PUSH2 0x95E JUMP JUMPDEST SWAP4 POP POP PUSH1 0x20 PUSH2 0xA22 DUP7 DUP3 DUP8 ADD PUSH2 0x98C JUMP JUMPDEST SWAP3 POP POP PUSH1 0x40 PUSH2 0xA33 DUP7 DUP3 DUP8 ADD PUSH2 0x949 JUMP JUMPDEST SWAP2 POP POP SWAP3 POP SWAP3 POP SWAP3 JUMP JUMPDEST PUSH1 0x0 PUSH1 0x20 DUP3 DUP5 SUB SLT ISZERO PUSH2 0xA53 JUMPI PUSH2 0xA52 PUSH2 0xED6 JUMP JUMPDEST JUMPDEST PUSH1 0x0 PUSH2 0xA61 DUP5 DUP3 DUP6 ADD PUSH2 0x98C JUMP JUMPDEST SWAP2 POP POP SWAP3 SWAP2 POP POP JUMP JUMPDEST PUSH2 0xA73 DUP2 PUSH2 0xCD5 JUMP JUMPDEST DUP3 MSTORE POP POP JUMP JUMPDEST PUSH2 0xA82 DUP2 PUSH2 0xCC3 JUMP JUMPDEST DUP3 MSTORE POP POP JUMP JUMPDEST PUSH2 0xA91 DUP2 PUSH2 0xCE7 JUMP JUMPDEST DUP3 MSTORE POP POP JUMP JUMPDEST PUSH1 0x0 PUSH2 0xAA2 DUP3 PUSH2 0xC76 JUMP JUMPDEST PUSH2 0xAAC DUP2 DUP6 PUSH2 0xC81 JUMP JUMPDEST SWAP4 POP PUSH2 0xABC DUP2 DUP6 PUSH1 0x20 DUP7 ADD PUSH2 0xD2C JUMP JUMPDEST PUSH2 0xAC5 DUP2 PUSH2 0xEDB JUMP JUMPDEST DUP5 ADD SWAP2 POP POP SWAP3 SWAP2 POP POP JUMP JUMPDEST PUSH1 0x0 PUSH2 0xADD PUSH1 0x22 DUP4 PUSH2 0xC81 JUMP JUMPDEST SWAP2 POP PUSH2 0xAE8 DUP3 PUSH2 0xEEC JUMP JUMPDEST PUSH1 0x40 DUP3 ADD SWAP1 POP SWAP2 SWAP1 POP JUMP JUMPDEST PUSH2 0xAFC DUP2 PUSH2 0xD13 JUMP JUMPDEST DUP3 MSTORE POP POP JUMP JUMPDEST PUSH1 0x0 PUSH1 0x20 DUP3 ADD SWAP1 POP PUSH2 0xB17 PUSH1 0x0 DUP4 ADD DUP5 PUSH2 0xA79 JUMP JUMPDEST SWAP3 SWAP2 POP POP JUMP JUMPDEST PUSH1 0x0 PUSH1 0x20 DUP3 ADD SWAP1 POP PUSH2 0xB32 PUSH1 0x0 DUP4 ADD DUP5 PUSH2 0xA88 JUMP JUMPDEST SWAP3 SWAP2 POP POP JUMP JUMPDEST PUSH1 0x0 PUSH1 0xA0 DUP3 ADD SWAP1 POP DUP2 DUP2 SUB PUSH1 0x0 DUP4 ADD MSTORE PUSH2 0xB52 DUP2 DUP9 PUSH2 0xA97 JUMP JUMPDEST SWAP1 POP PUSH2 0xB61 PUSH1 0x20 DUP4 ADD DUP8 PUSH2 0xAF3 JUMP JUMPDEST PUSH2 0xB6E PUSH1 0x40 DUP4 ADD DUP7 PUSH2 0xA6A JUMP JUMPDEST PUSH2 0xB7B PUSH1 0x60 DUP4 ADD DUP6 PUSH2 0xA88 JUMP JUMPDEST PUSH2 0xB88 PUSH1 0x80 DUP4 ADD DUP5 PUSH2 0xAF3 JUMP JUMPDEST SWAP7 SWAP6 POP POP POP POP POP POP JUMP JUMPDEST PUSH1 0x0 PUSH1 0x20 DUP3 ADD SWAP1 POP DUP2 DUP2 SUB PUSH1 0x0 DUP4 ADD MSTORE PUSH2 0xBAB DUP2 PUSH2 0xAD0 JUMP JUMPDEST SWAP1 POP SWAP2 SWAP1 POP JUMP JUMPDEST PUSH1 0x0 PUSH1 0x20 DUP3 ADD SWAP1 POP PUSH2 0xBC7 PUSH1 0x0 DUP4 ADD DUP5 PUSH2 0xAF3 JUMP JUMPDEST SWAP3 SWAP2 POP POP JUMP JUMPDEST PUSH1 0x0 PUSH1 0xA0 DUP3 ADD SWAP1 POP PUSH2 0xBE2 PUSH1 0x0 DUP4 ADD DUP9 PUSH2 0xAF3 JUMP JUMPDEST PUSH2 0xBEF PUSH1 0x20 DUP4 ADD DUP8 PUSH2 0xAF3 JUMP JUMPDEST PUSH2 0xBFC PUSH1 0x40 DUP4 ADD DUP7 PUSH2 0xAF3 JUMP JUMPDEST PUSH2 0xC09 PUSH1 0x60 DUP4 ADD DUP6 PUSH2 0xAF3 JUMP JUMPDEST PUSH2 0xC16 PUSH1 0x80 DUP4 ADD DUP5 PUSH2 0xA79 JUMP JUMPDEST SWAP7 SWAP6 POP POP POP POP POP POP JUMP JUMPDEST PUSH1 0x0 PUSH2 0xC2A PUSH2 0xC3B JUMP JUMPDEST SWAP1 POP PUSH2 0xC36 DUP3 DUP3 PUSH2 0xD91 JUMP JUMPDEST SWAP2 SWAP1 POP JUMP JUMPDEST PUSH1 0x0 PUSH1 0x40 MLOAD SWAP1 POP SWAP1 JUMP JUMPDEST PUSH1 0x0 PUSH8 0xFFFFFFFFFFFFFFFF DUP3 GT ISZERO PUSH2 0xC60 JUMPI PUSH2 0xC5F PUSH2 0xE98 JUMP JUMPDEST JUMPDEST PUSH2 0xC69 DUP3 PUSH2 0xEDB JUMP JUMPDEST SWAP1 POP PUSH1 0x20 DUP2 ADD SWAP1 POP SWAP2 SWAP1 POP JUMP JUMPDEST PUSH1 0x0 DUP2 MLOAD SWAP1 POP SWAP2 SWAP1 POP JUMP JUMPDEST PUSH1 0x0 DUP3 DUP3 MSTORE PUSH1 0x20 DUP3 ADD SWAP1 POP SWAP3 SWAP2 POP POP JUMP JUMPDEST PUSH1 0x0 PUSH2 0xC9D DUP3 PUSH2 0xD13 JUMP JUMPDEST SWAP2 POP PUSH2 0xCA8 DUP4 PUSH2 0xD13 JUMP JUMPDEST SWAP3 POP DUP3 PUSH2 0xCB8 JUMPI PUSH2 0xCB7 PUSH2 0xE3A JUMP JUMPDEST JUMPDEST DUP3 DUP3 DIV SWAP1 POP SWAP3 SWAP2 POP POP JUMP JUMPDEST PUSH1 0x0 PUSH2 0xCCE DUP3 PUSH2 0xCF3 JUMP JUMPDEST SWAP1 POP SWAP2 SWAP1 POP JUMP JUMPDEST PUSH1 0x0 PUSH2 0xCE0 DUP3 PUSH2 0xCF3 JUMP JUMPDEST SWAP1 POP SWAP2 SWAP1 POP JUMP JUMPDEST PUSH1 0x0 DUP2 ISZERO ISZERO SWAP1 POP SWAP2 SWAP1 POP JUMP JUMPDEST PUSH1 0x0 PUSH20 0xFFFFFFFFFFFFFFFFFFFFFFFFFFFFFFFFFFFFFFFF DUP3 AND SWAP1 POP SWAP2 SWAP1 POP JUMP JUMPDEST PUSH1 0x0 DUP2 SWAP1 POP SWAP2 SWAP1 POP JUMP JUMPDEST DUP3 DUP2 DUP4 CALLDATACOPY PUSH1 0x0 DUP4 DUP4 ADD MSTORE POP POP POP JUMP JUMPDEST PUSH1 0x0 JUMPDEST DUP4 DUP2 LT ISZERO PUSH2 0xD4A JUMPI DUP1 DUP3 ADD MLOAD DUP2 DUP5 ADD MSTORE PUSH1 0x20 DUP2 ADD SWAP1 POP PUSH2 0xD2F JUMP JUMPDEST DUP4 DUP2 GT ISZERO PUSH2 0xD59 JUMPI PUSH1 0x0 DUP5 DUP5 ADD MSTORE JUMPDEST POP POP POP POP JUMP JUMPDEST PUSH1 0x0 PUSH1 0x2 DUP3 DIV SWAP1 POP PUSH1 0x1 DUP3 AND DUP1 PUSH2 0xD77 JUMPI PUSH1 0x7F DUP3 AND SWAP2 POP JUMPDEST PUSH1 0x20 DUP3 LT DUP2 EQ ISZERO PUSH2 0xD8B JUMPI PUSH2 0xD8A PUSH2 0xE69 JUMP JUMPDEST JUMPDEST POP SWAP2 SWAP1 POP JUMP JUMPDEST PUSH2 0xD9A DUP3 PUSH2 0xEDB JUMP JUMPDEST DUP2 ADD DUP2 DUP2 LT PUSH8 0xFFFFFFFFFFFFFFFF DUP3 GT OR ISZERO PUSH2 0xDB9 JUMPI PUSH2 0xDB8 PUSH2 0xE98 JUMP JUMPDEST JUMPDEST DUP1 PUSH1 0x40 MSTORE POP POP POP JUMP JUMPDEST PUSH1 0x0 PUSH2 0xDCD DUP3 PUSH2 0xD13 JUMP JUMPDEST SWAP2 POP PUSH32 0xFFFFFFFFFFFFFFFFFFFFFFFFFFFFFFFFFFFFFFFFFFFFFFFFFFFFFFFFFFFFFFFF DUP3 EQ ISZERO PUSH2 0xE00 JUMPI PUSH2 0xDFF PUSH2 0xE0B JUMP JUMPDEST JUMPDEST PUSH1 0x1 DUP3 ADD SWAP1 POP SWAP2 SWAP1 POP JUMP JUMPDEST PUSH32 0x4E487B7100000000000000000000000000000000000000000000000000000000 PUSH1 0x0 MSTORE PUSH1 0x11 PUSH1 0x4 MSTORE PUSH1 0x24 PUSH1 0x0 REVERT JUMPDEST PUSH32 0x4E487B7100000000000000000000000000000000000000000000000000000000 PUSH1 0x0 MSTORE PUSH1 0x12 PUSH1 0x4 MSTORE PUSH1 0x24 PUSH1 0x0 REVERT JUMPDEST PUSH32 0x4E487B7100000000000000000000000000000000000000000000000000000000 PUSH1 0x0 MSTORE PUSH1 0x22 PUSH1 0x4 MSTORE PUSH1 0x24 PUSH1 0x0 REVERT JUMPDEST PUSH32 0x4E487B7100000000000000000000000000000000000000000000000000000000 PUSH1 0x0 MSTORE PUSH1 0x41 PUSH1 0x4 MSTORE PUSH1 0x24 PUSH1 0x0 REVERT JUMPDEST PUSH1 0x0 DUP1 REVERT JUMPDEST PUSH1 0x0 DUP1 REVERT JUMPDEST PUSH1 0x0 DUP1 REVERT JUMPDEST PUSH1 0x0 DUP1 REVERT JUMPDEST PUSH1 0x0 PUSH1 0x1F NOT PUSH1 0x1F DUP4 ADD AND SWAP1 POP SWAP2 SWAP1 POP JUMP JUMPDEST PUSH32 0x596F75206E65656420746F20636F6E7472696275746520746865206D696E696D PUSH1 0x0 DUP3 ADD MSTORE PUSH32 0x756D000000000000000000000000000000000000000000000000000000000000 PUSH1 0x20 DUP3 ADD MSTORE POP JUMP JUMPDEST PUSH2 0xF44 DUP2 PUSH2 0xCC3 JUMP JUMPDEST DUP2 EQ PUSH2 0xF4F JUMPI PUSH1 0x0 DUP1 REVERT JUMPDEST POP JUMP JUMPDEST PUSH2 0xF5B DUP2 PUSH2 0xCD5 JUMP JUMPDEST DUP2 EQ PUSH2 0xF66 JUMPI PUSH1 0x0 DUP1 REVERT JUMPDEST POP JUMP JUMPDEST PUSH2 0xF72 DUP2 PUSH2 0xD13 JUMP JUMPDEST DUP2 EQ PUSH2 0xF7D JUMPI PUSH1 0x0 DUP1 REVERT JUMPDEST POP JUMP INVALID LOG2 PUSH5 0x6970667358 0x22 SLT KECCAK256 CREATE ADD 0xED EXTCODEHASH JUMPI CALLDATALOAD 0xDA PUSH11 0xE14F3664AFFEA85C68CCCD SELFDESTRUCT 0x23 DELEGATECALL 0xE4 INVALID 0xF6 KECCAK256 PUSH15 0x265FA2232064736F6C634300080700 CALLER "
    },
    "gasEstimates": {
      "creation": {
        "codeDepositCost": "804400",
        "executionCost": "infinite",
        "totalCost": "infinite"
      },
      "external": {
        "approveRequest(uint256)": "infinite",
        "approvers(address)": "2868",
        "contribute()": "51027",
        "createRequest(string,uint256,address)": "infinite",
        "finalizeRequest(uint256)": "infinite",
        "manager()": "2578",
        "minimumContribution()": "2451",
        "requests(uint256)": "infinite",
        "requestsLength()": "2547",
        "setMinimum(uint256)": "22565",
        "summary()": "infinite"
      }
    },
    "methodIdentifiers": {
      "approveRequest(uint256)": "d7d1bbdb",
      "approvers(address)": "0a144391",
      "contribute()": "d7bb99ba",
      "createRequest(string,uint256,address)": "8a9cfd55",
      "finalizeRequest(uint256)": "03441006",
      "manager()": "481c6a75",
      "minimumContribution()": "937e09b1",
      "requests(uint256)": "81d12c58",
      "requestsLength()": "ffbbfcb0",
      "setMinimum(uint256)": "3209e9e6",
      "summary()": "b16a867c"
    }
  },
  "storageLayout": {
    "storage": [
      {
        "astId": 56,
        "contract": "Kickstarter.sol:Campaigns",
        "label": "manager",
        "offset": 0,
        "slot": "0",
        "type": "t_address"
      },
      {
        "astId": 58,
        "contract": "Kickstarter.sol:Campaigns",
        "label": "minimumContribution",
        "offset": 0,
        "slot": "1",
        "type": "t_uint256"
      },
      {
        "astId": 62,
        "contract": "Kickstarter.sol:Campaigns",
        "label": "approvers",
        "offset": 0,
        "slot": "2",
        "type": "t_mapping(t_address,t_bool)"
      },
      {
        "astId": 67,
        "contract": "Kickstarter.sol:Campaigns",
        "label": "requests",
        "offset": 0,
        "slot": "3",
        "type": "t_mapping(t_uint256,t_struct(Request)54_storage)"
      },
      {
        "astId": 69,
        "contract": "Kickstarter.sol:Campaigns",
        "label": "numRequests",
        "offset": 0,
        "slot": "4",
        "type": "t_uint256"
      },
      {
        "astId": 71,
        "contract": "Kickstarter.sol:Campaigns",
        "label": "approversCount",
        "offset": 0,
        "slot": "5",
        "type": "t_uint256"
      }
    ],
    "types": {
      "t_address": {
        "encoding": "inplace",
        "label": "address",
        "numberOfBytes": "20"
      },
      "t_address_payable": {
        "encoding": "inplace",
        "label": "address payable",
        "numberOfBytes": "20"
      },
      "t_bool": {
        "encoding": "inplace",
        "label": "bool",
        "numberOfBytes": "1"
      },
      "t_mapping(t_address,t_bool)": {
        "encoding": "mapping",
        "key": "t_address",
        "label": "mapping(address => bool)",
        "numberOfBytes": "32",
        "value": "t_bool"
      },
      "t_mapping(t_uint256,t_struct(Request)54_storage)": {
        "encoding": "mapping",
        "key": "t_uint256",
        "label": "mapping(uint256 => struct Campaigns.Request)",
        "numberOfBytes": "32",
        "value": "t_struct(Request)54_storage"
      },
      "t_string_storage": {
        "encoding": "bytes",
        "label": "string",
        "numberOfBytes": "32"
      },
      "t_struct(Request)54_storage": {
        "encoding": "inplace",
        "label": "struct Campaigns.Request",
        "members": [
          {
            "astId": 41,
            "contract": "Kickstarter.sol:Campaigns",
            "label": "description",
            "offset": 0,
            "slot": "0",
            "type": "t_string_storage"
          },
          {
            "astId": 43,
            "contract": "Kickstarter.sol:Campaigns",
            "label": "value",
            "offset": 0,
            "slot": "1",
            "type": "t_uint256"
          },
          {
            "astId": 45,
            "contract": "Kickstarter.sol:Campaigns",
            "label": "recipient",
            "offset": 0,
            "slot": "2",
            "type": "t_address_payable"
          },
          {
            "astId": 47,
            "contract": "Kickstarter.sol:Campaigns",
            "label": "complete",
            "offset": 20,
            "slot": "2",
            "type": "t_bool"
          },
          {
            "astId": 49,
            "contract": "Kickstarter.sol:Campaigns",
            "label": "approvalCount",
            "offset": 0,
            "slot": "3",
            "type": "t_uint256"
          },
          {
            "astId": 53,
            "contract": "Kickstarter.sol:Campaigns",
            "label": "approvals",
            "offset": 0,
            "slot": "4",
            "type": "t_mapping(t_address,t_bool)"
          }
        ],
        "numberOfBytes": "160"
      },
      "t_uint256": {
        "encoding": "inplace",
        "label": "uint256",
        "numberOfBytes": "32"
      }
    }
  },
  "userdoc": {
    "kind": "user",
    "methods": {},
    "version": 1
  }
}